{
  "transactions": [
    {
      "hash": "0x4774a1911afb441bd00ad9e6a9108150f44bb8714c0cad76b6e94baa23f9c005",
      "transactionType": "CALL",
      "contractName": null,
      "contractAddress": "0xfeec14a2e30999a84ff4d5750ffb6d3aec681e79",
      "function": "setVaultAuthorization(address,bool)",
      "arguments": [
        "0x9833F68daB132E432ac8Bca160f60b77af36A306",
        "false"
      ],
      "transaction": {
        "from": "0x0000071763daa95626125986d95f7c7748a1bfe3",
        "to": "0xfeec14a2e30999a84ff4d5750ffb6d3aec681e79",
        "gas": "0x8dca",
        "value": "0x0",
        "input": "0xfee610320000000000000000000000009833f68dab132e432ac8bca160f60b77af36a3060000000000000000000000000000000000000000000000000000000000000000",
        "nonce": "0x39",
        "chainId": "0x531"
      },
      "additionalContracts": [],
      "isFixedGasLimit": false
    }
  ],
  "receipts": [
    {
      "status": "0x1",
      "cumulativeGasUsed": "0x0",
      "logs": [
        {
          "address": "0xfeec14a2e30999a84ff4d5750ffb6d3aec681e79",
          "topics": [
            "0x18f47f52423fcea7fa18e18e69f46b50562f0a8090b20f6c3ddf12ba6ff84feb",
            "0x0000000000000000000000009833f68dab132e432ac8bca160f60b77af36a306"
          ],
          "data": "0x0000000000000000000000000000000000000000000000000000000000000000",
          "blockHash": "0xf038d040b3b213d35688736832594db0821914f371ee3bb14dd0e5b53b4967cd",
          "blockNumber": "0x9b8dca5",
          "transactionHash": "0x4774a1911afb441bd00ad9e6a9108150f44bb8714c0cad76b6e94baa23f9c005",
          "transactionIndex": "0x14",
          "logIndex": "0x1a",
          "removed": false
        }
      ],
      "logsBloom": "0x00000000000000000000000000000000000000000000000000000000000000000000000000000000000000000000000000000000000000001000000000000000000100000000000000000100000000080000000000000000000000000000000000000000000000002400000000000000000000000000000000000000000100000000000000000000000000000000000000000000000000000000000000000000000000000000000000000000000000000000000000000000000000000000000800000000000000000000000000000000000000000000000000000000000000000000000000000000000000000000000000000000000000000000000000002000",
      "type": "0x2",
      "transactionHash": "0x4774a1911afb441bd00ad9e6a9108150f44bb8714c0cad76b6e94baa23f9c005",
      "transactionIndex": "0x14",
      "blockHash": "0xf038d040b3b213d35688736832594db0821914f371ee3bb14dd0e5b53b4967cd",
      "blockNumber": "0x9b8dca5",
      "gasUsed": "0x66a8",
      "effectiveGasPrice": "0x9fcb593e",
      "from": "0x0000071763daa95626125986d95f7c7748a1bfe3",
      "to": "0xfeec14a2e30999a84ff4d5750ffb6d3aec681e79",
      "contractAddress": null
    }
  ],
  "libraries": [],
  "pending": [],
  "returns": {},
  "timestamp": 1755401962,
  "chain": 1329,
  "commit": "b329af5"
}