{
  "transactions": [
    {
      "hash": "0x2624ea759e3d963b8d04108576b7ec0b765eba7781ffcc68714e55ea2a10152e",
      "transactionType": "CALL",
      "contractName": null,
      "contractAddress": "0x36068f15f257896e03fb7edba3d18898d0ade809",
      "function": "reset(uint256)",
      "arguments": [
        "2426"
      ],
      "transaction": {
        "from": "0x0000071763daa95626125986d95f7c7748a1bfe3",
        "to": "0x36068f15f257896e03fb7edba3d18898d0ade809",
        "gas": "0x1ef9c",
        "value": "0x0",
        "input": "0x310bd74b000000000000000000000000000000000000000000000000000000000000097a",
        "nonce": "0x1a",
        "chainId": "0x531"
      },
      "additionalContracts": [],
      "isFixedGasLimit": false
    },
    {
      "hash": "0x49696b5792e12738b2c98be32316b66407f83a6693490fa077dbd9ab120ff76c",
      "transactionType": "CALL",
      "contractName": null,
      "contractAddress": "0x86a247ef0fc244565bcab93936e867407ac81580",
      "function": "approve(address,uint256)",
      "arguments": [
        "0x2fB0DA76902E13810460A80045C3FC5170776543",
        "2426"
      ],
      "transaction": {
        "from": "0x0000071763daa95626125986d95f7c7748a1bfe3",
        "to": "0x86a247ef0fc244565bcab93936e867407ac81580",
        "gas": "0x122d1",
        "value": "0x0",
        "input": "0x095ea7b30000000000000000000000002fb0da76902e13810460a80045c3fc5170776543000000000000000000000000000000000000000000000000000000000000097a",
        "nonce": "0x1b",
        "chainId": "0x531"
      },
      "additionalContracts": [],
      "isFixedGasLimit": false
    },
    {
      "hash": "0x7a648293e7e6003e45568271fe0aee7c19eaa49a227560b144218b2fa6bcbc13",
      "transactionType": "CALL",
      "contractName": null,
      "contractAddress": "0x2fb0da76902e13810460a80045c3fc5170776543",
      "function": "depositNFT(uint256)",
      "arguments": [
        "2426"
      ],
      "transaction": {
        "from": "0x0000071763daa95626125986d95f7c7748a1bfe3",
        "to": "0x2fb0da76902e13810460a80045c3fc5170776543",
        "gas": "0xbdeb3",
        "value": "0x0",
        "input": "0xe91a7ca6000000000000000000000000000000000000000000000000000000000000097a",
        "nonce": "0x1c",
        "chainId": "0x531"
      },
      "additionalContracts": [],
      "isFixedGasLimit": false
    }
  ],
  "receipts": [
    {
      "status": "0x1",
      "cumulativeGasUsed": "0x0",
      "logs": [],
      "logsBloom": "0x00000000000000000000000000000000000000000000000000000000000000000000000000000000000000000000000000000000000000000000000000000000000000000000000000000000000000000000000000000000000000000000000000000000000000000000000000000000000000000000000000000000000000000000000000000000000000000000000000000000000000000000000000000000000000000000000000000000000000000000000000000000000000000000000000000000000000000000000000000000000000000000000000000000000000000000000000000000000000000000000000000000000000000000000000000000",
      "type": "0x2",
      "transactionHash": "0x2624ea759e3d963b8d04108576b7ec0b765eba7781ffcc68714e55ea2a10152e",
      "transactionIndex": "0xe",
      "blockHash": "0x03393868974f519506242d61134fb2cd95b34b0cd45d58c6e8d7a9cbe3c584d1",
      "blockNumber": "0x9a7a321",
      "gasUsed": "0x152e1",
      "effectiveGasPrice": "0xa8faaac0",
      "from": "0x0000071763daa95626125986d95f7c7748a1bfe3",
      "to": "0x36068f15f257896e03fb7edba3d18898d0ade809",
      "contractAddress": null
    },
    {
      "status": "0x1",
      "cumulativeGasUsed": "0x0",
      "logs": [
        {
          "address": "0x86a247ef0fc244565bcab93936e867407ac81580",
          "topics": [
            "0x8c5be1e5ebec7d5bd14f71427d1e84f3dd0314c0f7b2291e5b200ac8c7c3b925",
            "0x0000000000000000000000000000071763daa95626125986d95f7c7748a1bfe3",
            "0x0000000000000000000000002fb0da76902e13810460a80045c3fc5170776543",
            "0x000000000000000000000000000000000000000000000000000000000000097a"
          ],
          "data": "0x",
          "blockHash": "0x4c970cd9458164ef0ee5280f3d8127a952fd02a0f27f37e9f3caf8e1e5d4a690",
          "blockNumber": "0x9a7a322",
          "transactionHash": "0x49696b5792e12738b2c98be32316b66407f83a6693490fa077dbd9ab120ff76c",
          "transactionIndex": "0xf",
          "logIndex": "0x13",
          "removed": false
        }
      ],
      "logsBloom": "0x00000000000000000000000000080000000000000000000000000000000000000000000000000000000000000000000000000000000000000000004000200000000000000000000000000000008000000000000000002000000000000000000000000000000000000000000000000000000000000000000000000000000000000000000100000000000000000000000000000000000000000000000001000000020000000000000000000000000000000000000000000000000000000000020000008000000800000000000000000000000000000000000000004000000000000010080000080000000000000000000000000000000000000000000000000000",
      "type": "0x2",
      "transactionHash": "0x49696b5792e12738b2c98be32316b66407f83a6693490fa077dbd9ab120ff76c",
      "transactionIndex": "0xf",
      "blockHash": "0x4c970cd9458164ef0ee5280f3d8127a952fd02a0f27f37e9f3caf8e1e5d4a690",
      "blockNumber": "0x9a7a322",
      "gasUsed": "0xc6da",
      "effectiveGasPrice": "0xa8faaac0",
      "from": "0x0000071763daa95626125986d95f7c7748a1bfe3",
      "to": "0x86a247ef0fc244565bcab93936e867407ac81580",
      "contractAddress": null
    },
    {
      "status": "0x1",
      "cumulativeGasUsed": "0x0",
      "logs": [
        {
          "address": "0x86a247ef0fc244565bcab93936e867407ac81580",
          "topics": [
            "0xddf252ad1be2c89b69c2b068fc378daa952ba7f163c4a11628f55a4df523b3ef",
            "0x0000000000000000000000000000071763daa95626125986d95f7c7748a1bfe3",
            "0x0000000000000000000000002fb0da76902e13810460a80045c3fc5170776543",
            "0x000000000000000000000000000000000000000000000000000000000000097a"
          ],
          "data": "0x",
          "blockHash": "0x4c970cd9458164ef0ee5280f3d8127a952fd02a0f27f37e9f3caf8e1e5d4a690",
          "blockNumber": "0x9a7a322",
          "transactionHash": "0x7a648293e7e6003e45568271fe0aee7c19eaa49a227560b144218b2fa6bcbc13",
          "transactionIndex": "0x10",
          "logIndex": "0x14",
          "removed": false
        },
        {
          "address": "0x86a247ef0fc244565bcab93936e867407ac81580",
          "topics": [
            "0x8c5be1e5ebec7d5bd14f71427d1e84f3dd0314c0f7b2291e5b200ac8c7c3b925",
            "0x0000000000000000000000002fb0da76902e13810460a80045c3fc5170776543",
            "0x0000000000000000000000000000000000000000000000000000000000000000",
            "0x000000000000000000000000000000000000000000000000000000000000097a"
          ],
          "data": "0x",
          "blockHash": "0x4c970cd9458164ef0ee5280f3d8127a952fd02a0f27f37e9f3caf8e1e5d4a690",
          "blockNumber": "0x9a7a322",
          "transactionHash": "0x7a648293e7e6003e45568271fe0aee7c19eaa49a227560b144218b2fa6bcbc13",
          "transactionIndex": "0x10",
          "logIndex": "0x15",
          "removed": false
        },
        {
          "address": "0x86a247ef0fc244565bcab93936e867407ac81580",
          "topics": [
            "0xddf252ad1be2c89b69c2b068fc378daa952ba7f163c4a11628f55a4df523b3ef",
            "0x0000000000000000000000002fb0da76902e13810460a80045c3fc5170776543",
            "0x0000000000000000000000000000000000000000000000000000000000000000",
            "0x000000000000000000000000000000000000000000000000000000000000097a"
          ],
          "data": "0x",
          "blockHash": "0x4c970cd9458164ef0ee5280f3d8127a952fd02a0f27f37e9f3caf8e1e5d4a690",
          "blockNumber": "0x9a7a322",
          "transactionHash": "0x7a648293e7e6003e45568271fe0aee7c19eaa49a227560b144218b2fa6bcbc13",
          "transactionIndex": "0x10",
          "logIndex": "0x16",
          "removed": false
        },
        {
          "address": "0x86a247ef0fc244565bcab93936e867407ac81580",
          "topics": [
            "0xff04ccafc360e16b67d682d17bd9503c4c6b9a131f6be6325762dc9ffc7de624",
            "0x0000000000000000000000002fb0da76902e13810460a80045c3fc5170776543",
            "0x000000000000000000000000000000000000000000000000000000006c53b080"
          ],
          "data": "0x00000000000000000000000000000000000000000000000000000000000009790000000000000000000000000000000000000000000000000de0b6b3a76400000000000000000000000000000000000000000000000000000000000000000004000000000000000000000000000000000000000000000000000000006898a220",
          "blockHash": "0x4c970cd9458164ef0ee5280f3d8127a952fd02a0f27f37e9f3caf8e1e5d4a690",
          "blockNumber": "0x9a7a322",
          "transactionHash": "0x7a648293e7e6003e45568271fe0aee7c19eaa49a227560b144218b2fa6bcbc13",
          "transactionIndex": "0x10",
          "logIndex": "0x17",
          "removed": false
        },
        {
          "address": "0x86a247ef0fc244565bcab93936e867407ac81580",
          "topics": [
            "0x5e2aa66efd74cce82b21852e317e5490d9ecc9e6bb953ae24d90851258cc2f5c"
          ],
          "data": "0x0000000000000000000000000000000000000000029503dfd88d5b5a4e8473b60000000000000000000000000000000000000000029503dfe66e120df5e873b6",
          "blockHash": "0x4c970cd9458164ef0ee5280f3d8127a952fd02a0f27f37e9f3caf8e1e5d4a690",
          "blockNumber": "0x9a7a322",
          "transactionHash": "0x7a648293e7e6003e45568271fe0aee7c19eaa49a227560b144218b2fa6bcbc13",
          "transactionIndex": "0x10",
          "logIndex": "0x18",
          "removed": false
        },
        {
          "address": "0xfeec14a2e30999a84ff4d5750ffb6d3aec681e79",
          "topics": [
            "0xddf252ad1be2c89b69c2b068fc378daa952ba7f163c4a11628f55a4df523b3ef",
            "0x0000000000000000000000000000000000000000000000000000000000000000",
            "0x0000000000000000000000000000071763daa95626125986d95f7c7748a1bfe3"
          ],
          "data": "0x0000000000000000000000000000000000000000000000000b1a2bc2ec500000",
          "blockHash": "0x4c970cd9458164ef0ee5280f3d8127a952fd02a0f27f37e9f3caf8e1e5d4a690",
          "blockNumber": "0x9a7a322",
          "transactionHash": "0x7a648293e7e6003e45568271fe0aee7c19eaa49a227560b144218b2fa6bcbc13",
          "transactionIndex": "0x10",
          "logIndex": "0x19",
          "removed": false
        },
        {
          "address": "0x2fb0da76902e13810460a80045c3fc5170776543",
          "topics": [
            "0x2c6e00d05c9537687e3346c6bb423b06c873979206b8d425ddbb4f9b436e0582",
            "0x0000000000000000000000000000071763daa95626125986d95f7c7748a1bfe3",
            "0x000000000000000000000000000000000000000000000000000000000000097a"
          ],
          "data": "0x0000000000000000000000000000000000000000000000000b1a2bc2ec500000",
          "blockHash": "0x4c970cd9458164ef0ee5280f3d8127a952fd02a0f27f37e9f3caf8e1e5d4a690",
          "blockNumber": "0x9a7a322",
          "transactionHash": "0x7a648293e7e6003e45568271fe0aee7c19eaa49a227560b144218b2fa6bcbc13",
          "transactionIndex": "0x10",
          "logIndex": "0x1a",
          "removed": false
        }
      ],
      "logsBloom": "0x00000000000000000000010000080000000100000008100000000000000000000000000000000000000000000000010000000000000000001810004000200000000100010000000000000008008000000000000000002000000000000000000000000000020000000004880000000800000000000000000000000010000000000000000100000000000000000000000000000000000000000000000001000000020008000000000000000000000000000000000000000000000000000000022000008002000800000080000000000040000000000000000000004000000020000010080000080000000000000000000000000000000000000000000000002000",
      "type": "0x2",
      "transactionHash": "0x7a648293e7e6003e45568271fe0aee7c19eaa49a227560b144218b2fa6bcbc13",
      "transactionIndex": "0x10",
      "blockHash": "0x4c970cd9458164ef0ee5280f3d8127a952fd02a0f27f37e9f3caf8e1e5d4a690",
      "blockNumber": "0x9a7a322",
      "gasUsed": "0x897f7",
      "effectiveGasPrice": "0xa8faaac0",
      "from": "0x0000071763daa95626125986d95f7c7748a1bfe3",
      "to": "0x2fb0da76902e13810460a80045c3fc5170776543",
      "contractAddress": null
    }
  ],
  "libraries": [],
  "pending": [],
  "returns": {},
  "timestamp": 1754833443,
  "chain": 1329,
  "commit": "3042979"
}