{
  "transactions": [
    {
      "hash": "0x546ac340c33d4d7ab7e2b155fd801d6ea9556f1b53990cd0a8a069360dc99ca0",
      "transactionType": "CALL",
      "contractName": null,
      "contractAddress": "0x2fb0da76902e13810460a80045c3fc5170776543",
      "function": "migrateToNewVault(address)",
      "arguments": [
        "0x9Ff8a56c9E393D0cC4093b15B70EcC67CfC577c6"
      ],
      "transaction": {
        "from": "0x0000071763daa95626125986d95f7c7748a1bfe3",
        "to": "0x2fb0da76902e13810460a80045c3fc5170776543",
        "gas": "0x49e42",
        "value": "0x0",
        "input": "0xcec1e6ba0000000000000000000000009ff8a56c9e393d0cc4093b15b70ecc67cfc577c6",
        "nonce": "0x25",
        "chainId": "0x531"
      },
      "additionalContracts": [],
      "isFixedGasLimit": false
    },
    {
      "hash": "0x668b69fec8e53a290e19197b4f8aca045add4206a0a871df913fcf21817bcb39",
      "transactionType": "CALL",
      "contractName": null,
      "contractAddress": "0x9ff8a56c9e393d0cc4093b15b70ecc67cfc577c6",
      "function": "receiveFromOldVault(uint256)",
      "arguments": [
        "2439"
      ],
      "transaction": {
        "from": "0x0000071763daa95626125986d95f7c7748a1bfe3",
        "to": "0x9ff8a56c9e393d0cc4093b15b70ecc67cfc577c6",
        "gas": "0x11860",
        "value": "0x0",
        "input": "0xf130ce9e0000000000000000000000000000000000000000000000000000000000000987",
        "nonce": "0x26",
        "chainId": "0x531"
      },
      "additionalContracts": [],
      "isFixedGasLimit": false
    }
  ],
  "receipts": [
    {
      "status": "0x1",
      "cumulativeGasUsed": "0x0",
      "logs": [
        {
          "address": "0x86a247ef0fc244565bcab93936e867407ac81580",
          "topics": [
            "0xddf252ad1be2c89b69c2b068fc378daa952ba7f163c4a11628f55a4df523b3ef",
            "0x0000000000000000000000002fb0da76902e13810460a80045c3fc5170776543",
            "0x0000000000000000000000009ff8a56c9e393d0cc4093b15b70ecc67cfc577c6",
            "0x0000000000000000000000000000000000000000000000000000000000000987"
          ],
          "data": "0x",
          "blockHash": "0xdae85c07859089d8a86335abcf0c354472c28ceaa0de421206f6e2d81e341a81",
          "blockNumber": "0x9ae7379",
          "transactionHash": "0x546ac340c33d4d7ab7e2b155fd801d6ea9556f1b53990cd0a8a069360dc99ca0",
          "transactionIndex": "0x8",
          "logIndex": "0x6",
          "removed": false
        },
        {
          "address": "0x2fb0da76902e13810460a80045c3fc5170776543",
          "topics": [
            "0x92e4cea44e9707d0d3f0d5e38d2b0e983dced34d072c945a2fa65182bf693d50",
            "0x0000000000000000000000009ff8a56c9e393d0cc4093b15b70ecc67cfc577c6"
          ],
          "data": "0x000000000000000000000000000000000000000000000000000000000000002000000000000000000000000000000000000000000000000000000000000000010000000000000000000000000000000000000000000000000000000000000987",
          "blockHash": "0xdae85c07859089d8a86335abcf0c354472c28ceaa0de421206f6e2d81e341a81",
          "blockNumber": "0x9ae7379",
          "transactionHash": "0x546ac340c33d4d7ab7e2b155fd801d6ea9556f1b53990cd0a8a069360dc99ca0",
          "transactionIndex": "0x8",
          "logIndex": "0x7",
          "removed": false
        }
      ],
      "logsBloom": "0x00000000000000000000000000080000000100000000100008000000000002000000000000000000000000000000000000000000000000000000000000000000000000000000000000000008000000000000000000000000000000000000000000040000000000000000800000000000000000000000000000000010000000000000000000000000100000000000000000000000000000000000000001000000000000000000000000000000000000001000000000000000000000000000000000008002000800000000000000000800000000000000000000004000000000000000080000000000000000000000000000000400000008000000000000000000",
      "type": "0x2",
      "transactionHash": "0x546ac340c33d4d7ab7e2b155fd801d6ea9556f1b53990cd0a8a069360dc99ca0",
      "transactionIndex": "0x8",
      "blockHash": "0xdae85c07859089d8a86335abcf0c354472c28ceaa0de421206f6e2d81e341a81",
      "blockNumber": "0x9ae7379",
      "gasUsed": "0x32862",
      "effectiveGasPrice": "0x7d2b7500",
      "from": "0x0000071763daa95626125986d95f7c7748a1bfe3",
      "to": "0x2fb0da76902e13810460a80045c3fc5170776543",
      "contractAddress": null
    },
    {
      "status": "0x1",
      "cumulativeGasUsed": "0x0",
      "logs": [],
      "logsBloom": "0x00000000000000000000000000000000000000000000000000000000000000000000000000000000000000000000000000000000000000000000000000000000000000000000000000000000000000000000000000000000000000000000000000000000000000000000000000000000000000000000000000000000000000000000000000000000000000000000000000000000000000000000000000000000000000000000000000000000000000000000000000000000000000000000000000000000000000000000000000000000000000000000000000000000000000000000000000000000000000000000000000000000000000000000000000000000",
      "type": "0x2",
      "transactionHash": "0x668b69fec8e53a290e19197b4f8aca045add4206a0a871df913fcf21817bcb39",
      "transactionIndex": "0x14",
      "blockHash": "0xe540c21ecc4fbd3cbf6b7c171943a2ca19a0ed159b6f94beb7601a3f24400756",
      "blockNumber": "0x9ae737a",
      "gasUsed": "0xcafe",
      "effectiveGasPrice": "0x7d2b7500",
      "from": "0x0000071763daa95626125986d95f7c7748a1bfe3",
      "to": "0x9ff8a56c9e393d0cc4093b15b70ecc67cfc577c6",
      "contractAddress": null
    }
  ],
  "libraries": [],
  "pending": [],
  "returns": {},
  "timestamp": 1755057557,
  "chain": 1329,
  "commit": "3042979"
}