{
  "transactions": [
    {
      "hash": "0x777b0e8da68c77a656a38fbd99ecc7c32823a110210146497ad394c1faee73ad",
      "transactionType": "CALL",
      "contractName": null,
      "contractAddress": "0x25184f590aaf61d41677ea3cd6df009deaebbb13",
      "function": "migrateToNewVault(address)",
      "arguments": [
        "0xa206090C1A07518E977B0942023ca190314b8934"
      ],
      "transaction": {
        "from": "0x0000071763daa95626125986d95f7c7748a1bfe3",
        "to": "0x25184f590aaf61d41677ea3cd6df009deaebbb13",
        "gas": "0x45df9",
        "value": "0x0",
        "input": "0xcec1e6ba000000000000000000000000a206090c1a07518e977b0942023ca190314b8934",
        "nonce": "0x4c",
        "chainId": "0x531"
      },
      "additionalContracts": [],
      "isFixedGasLimit": false
    },
    {
      "hash": "0x878c7feb6041ff92a6d964214f2b1b26ffff6542905a4537e514d5f0f8389fcf",
      "transactionType": "CALL",
      "contractName": null,
      "contractAddress": "0xa206090c1a07518e977b0942023ca190314b8934",
      "function": "receiveFromOldVault(uint256)",
      "arguments": [
        "2460"
      ],
      "transaction": {
        "from": "0x0000071763daa95626125986d95f7c7748a1bfe3",
        "to": "0xa206090c1a07518e977b0942023ca190314b8934",
        "gas": "0x119cf",
        "value": "0x0",
        "input": "0xf130ce9e000000000000000000000000000000000000000000000000000000000000099c",
        "nonce": "0x4d",
        "chainId": "0x531"
      },
      "additionalContracts": [],
      "isFixedGasLimit": false
    }
  ],
  "receipts": [
    {
      "status": "0x1",
      "cumulativeGasUsed": "0x0",
      "logs": [
        {
          "address": "0x86a247ef0fc244565bcab93936e867407ac81580",
          "topics": [
            "0xddf252ad1be2c89b69c2b068fc378daa952ba7f163c4a11628f55a4df523b3ef",
            "0x00000000000000000000000025184f590aaf61d41677ea3cd6df009deaebbb13",
            "0x000000000000000000000000a206090c1a07518e977b0942023ca190314b8934",
            "0x000000000000000000000000000000000000000000000000000000000000099c"
          ],
          "data": "0x",
          "blockHash": "0xcb8331e2952a782a1052a90c03a2d652f613877ddd58143b8eb9614d45dcdb88",
          "blockNumber": "0x9c45aeb",
          "transactionHash": "0x777b0e8da68c77a656a38fbd99ecc7c32823a110210146497ad394c1faee73ad",
          "transactionIndex": "0x15",
          "logIndex": "0x1f",
          "removed": false
        },
        {
          "address": "0x25184f590aaf61d41677ea3cd6df009deaebbb13",
          "topics": [
            "0x92e4cea44e9707d0d3f0d5e38d2b0e983dced34d072c945a2fa65182bf693d50",
            "0x000000000000000000000000a206090c1a07518e977b0942023ca190314b8934"
          ],
          "data": "0x00000000000000000000000000000000000000000000000000000000000000200000000000000000000000000000000000000000000000000000000000000001000000000000000000000000000000000000000000000000000000000000099c",
          "blockHash": "0xcb8331e2952a782a1052a90c03a2d652f613877ddd58143b8eb9614d45dcdb88",
          "blockNumber": "0x9c45aeb",
          "transactionHash": "0x777b0e8da68c77a656a38fbd99ecc7c32823a110210146497ad394c1faee73ad",
          "transactionIndex": "0x15",
          "logIndex": "0x20",
          "removed": false
        }
      ],
      "logsBloom": "0x00000000000000000000000000000000000000000000000000000000000002000000000000000000000000000000000000000000000020000000000000000000000000000000000000000008000000000000000000000000000008000000000000000000000000000000000000000000000000000000000000000010000000000000000000000000000000000000000000000000000000000000000001000000000002000000000000000000000000000000000000000002000008000000000000008102000000020000000000000800000000080000000000000000000000404000080000000000000000000000000000000000002008000000000000002000",
      "type": "0x2",
      "transactionHash": "0x777b0e8da68c77a656a38fbd99ecc7c32823a110210146497ad394c1faee73ad",
      "transactionIndex": "0x15",
      "blockHash": "0xcb8331e2952a782a1052a90c03a2d652f613877ddd58143b8eb9614d45dcdb88",
      "blockNumber": "0x9c45aeb",
      "gasUsed": "0x32965",
      "effectiveGasPrice": "0x7e57630a",
      "from": "0x0000071763daa95626125986d95f7c7748a1bfe3",
      "to": "0x25184f590aaf61d41677ea3cd6df009deaebbb13",
      "contractAddress": null
    },
    {
      "status": "0x1",
      "cumulativeGasUsed": "0x0",
      "logs": [],
      "logsBloom": "0x00000000000000000000000000000000000000000000000000000000000000000000000000000000000000000000000000000000000000000000000000000000000000000000000000000000000000000000000000000000000000000000000000000000000000000000000000000000000000000000000000000000000000000000000000000000000000000000000000000000000000000000000000000000000000000000000000000000000000000000000000000000000000000000000000000000000000000000000000000000000000000000000000000000000000000000000000000000000000000000000000000000000000000000000000000000",
      "type": "0x2",
      "transactionHash": "0x878c7feb6041ff92a6d964214f2b1b26ffff6542905a4537e514d5f0f8389fcf",
      "transactionIndex": "0x19",
      "blockHash": "0xaa73f96f4f014be1afbd5202d93b6a6dec0a7ad66fd7dbf9ae31253d58037e88",
      "blockNumber": "0x9c45aec",
      "gasUsed": "0xcc07",
      "effectiveGasPrice": "0x7e57630a",
      "from": "0x0000071763daa95626125986d95f7c7748a1bfe3",
      "to": "0xa206090c1a07518e977b0942023ca190314b8934",
      "contractAddress": null
    }
  ],
  "libraries": [],
  "pending": [],
  "returns": {},
  "timestamp": 1755781526,
  "chain": 1329,
  "commit": "ec924b3"
}