{
  "transactions": [
    {
      "hash": "0x24094df262dc0d41817aa41fbf5edcc108e5b5fd59f8c0c1aca4d5f3ed5b29d1",
      "transactionType": "CALL",
      "contractName": null,
      "contractAddress": "0x9833f68dab132e432ac8bca160f60b77af36a306",
      "function": "migrateToNewVault(address)",
      "arguments": [
        "0x25184F590aAf61D41677ea3CD6Df009dEAEBBB13"
      ],
      "transaction": {
        "from": "0x0000071763daa95626125986d95f7c7748a1bfe3",
        "to": "0x9833f68dab132e432ac8bca160f60b77af36a306",
        "gas": "0x5f506",
        "value": "0x0",
        "input": "0xcec1e6ba00000000000000000000000025184f590aaf61d41677ea3cd6df009deaebbb13",
        "nonce": "0x3a",
        "chainId": "0x531"
      },
      "additionalContracts": [],
      "isFixedGasLimit": false
    },
    {
      "hash": "0x511e1a574a65ae25b0cbb9121b86a056997e3b951834c236a1fba6ced65e4ee8",
      "transactionType": "CALL",
      "contractName": null,
      "contractAddress": "0x25184f590aaf61d41677ea3cd6df009deaebbb13",
      "function": "receiveFromOldVault(uint256)",
      "arguments": [
        "2444"
      ],
      "transaction": {
        "from": "0x0000071763daa95626125986d95f7c7748a1bfe3",
        "to": "0x25184f590aaf61d41677ea3cd6df009deaebbb13",
        "gas": "0x119cf",
        "value": "0x0",
        "input": "0xf130ce9e000000000000000000000000000000000000000000000000000000000000098c",
        "nonce": "0x3b",
        "chainId": "0x531"
      },
      "additionalContracts": [],
      "isFixedGasLimit": false
    }
  ],
  "receipts": [
    {
      "status": "0x1",
      "cumulativeGasUsed": "0x0",
      "logs": [
        {
          "address": "0x36068f15f257896e03fb7edba3d18898d0ade809",
          "topics": [
            "0xa9f3ca5f8a9e1580edb2741e0ba560084ec72e0067ba3423f9e9327a176882db"
          ],
          "data": "0x000000000000000000000000000000000000000000000000000000000000098c00000000000000000000000000000000000000000000001142a90719c285ae14",
          "blockHash": "0x954814a68ab39320caac3558642fafe3a2c7a3528586ddcb7d5d2166a09636df",
          "blockNumber": "0x9b8de42",
          "transactionHash": "0x24094df262dc0d41817aa41fbf5edcc108e5b5fd59f8c0c1aca4d5f3ed5b29d1",
          "transactionIndex": "0x3",
          "logIndex": "0x3",
          "removed": false
        },
        {
          "address": "0x9833f68dab132e432ac8bca160f60b77af36a306",
          "topics": [
            "0x8be98ba0c457a4e5c820d7f0dc4371bcb8a3c23823129ba922f3482465159df3",
            "0x000000000000000000000000000000000000000000000000000000000000098c"
          ],
          "data": "0x",
          "blockHash": "0x954814a68ab39320caac3558642fafe3a2c7a3528586ddcb7d5d2166a09636df",
          "blockNumber": "0x9b8de42",
          "transactionHash": "0x24094df262dc0d41817aa41fbf5edcc108e5b5fd59f8c0c1aca4d5f3ed5b29d1",
          "transactionIndex": "0x3",
          "logIndex": "0x4",
          "removed": false
        },
        {
          "address": "0x86a247ef0fc244565bcab93936e867407ac81580",
          "topics": [
            "0xddf252ad1be2c89b69c2b068fc378daa952ba7f163c4a11628f55a4df523b3ef",
            "0x0000000000000000000000009833f68dab132e432ac8bca160f60b77af36a306",
            "0x00000000000000000000000025184f590aaf61d41677ea3cd6df009deaebbb13",
            "0x000000000000000000000000000000000000000000000000000000000000098c"
          ],
          "data": "0x",
          "blockHash": "0x954814a68ab39320caac3558642fafe3a2c7a3528586ddcb7d5d2166a09636df",
          "blockNumber": "0x9b8de42",
          "transactionHash": "0x24094df262dc0d41817aa41fbf5edcc108e5b5fd59f8c0c1aca4d5f3ed5b29d1",
          "transactionIndex": "0x3",
          "logIndex": "0x5",
          "removed": false
        },
        {
          "address": "0x9833f68dab132e432ac8bca160f60b77af36a306",
          "topics": [
            "0x92e4cea44e9707d0d3f0d5e38d2b0e983dced34d072c945a2fa65182bf693d50",
            "0x00000000000000000000000025184f590aaf61d41677ea3cd6df009deaebbb13"
          ],
          "data": "0x00000000000000000000000000000000000000000000000000000000000000200000000000000000000000000000000000000000000000000000000000000001000000000000000000000000000000000000000000000000000000000000098c",
          "blockHash": "0x954814a68ab39320caac3558642fafe3a2c7a3528586ddcb7d5d2166a09636df",
          "blockNumber": "0x9b8de42",
          "transactionHash": "0x24094df262dc0d41817aa41fbf5edcc108e5b5fd59f8c0c1aca4d5f3ed5b29d1",
          "transactionIndex": "0x3",
          "logIndex": "0x6",
          "removed": false
        }
      ],
      "logsBloom": "0x00000000000000000000200400000000000008000000000000220000000002000000000000000000000000000000000000000000000020000000000000000000000000000000000000000108000000000004000000000000000008000000000000000000000000000008000000000000000000000000000000000010000100000000000000000000000000000000000000000020000020000000000001000000000000000000000000000000000000000000000000000000000000000000800800008002000000020000000000100800800000001000000000000000000000000000080000000200000000000000000000000000000008000000000000000000",
      "type": "0x2",
      "transactionHash": "0x24094df262dc0d41817aa41fbf5edcc108e5b5fd59f8c0c1aca4d5f3ed5b29d1",
      "transactionIndex": "0x3",
      "blockHash": "0x954814a68ab39320caac3558642fafe3a2c7a3528586ddcb7d5d2166a09636df",
      "blockNumber": "0x9b8de42",
      "gasUsed": "0x412c1",
      "effectiveGasPrice": "0xcf4d6e62",
      "from": "0x0000071763daa95626125986d95f7c7748a1bfe3",
      "to": "0x9833f68dab132e432ac8bca160f60b77af36a306",
      "contractAddress": null
    },
    {
      "status": "0x1",
      "cumulativeGasUsed": "0x0",
      "logs": [],
      "logsBloom": "0x00000000000000000000000000000000000000000000000000000000000000000000000000000000000000000000000000000000000000000000000000000000000000000000000000000000000000000000000000000000000000000000000000000000000000000000000000000000000000000000000000000000000000000000000000000000000000000000000000000000000000000000000000000000000000000000000000000000000000000000000000000000000000000000000000000000000000000000000000000000000000000000000000000000000000000000000000000000000000000000000000000000000000000000000000000000",
      "type": "0x2",
      "transactionHash": "0x511e1a574a65ae25b0cbb9121b86a056997e3b951834c236a1fba6ced65e4ee8",
      "transactionIndex": "0x1",
      "blockHash": "0xa65316d2a9eadc4435db4bcb3878e336c3367190f682d5dc4b8aaec7954c8a07",
      "blockNumber": "0x9b8de45",
      "gasUsed": "0xcc07",
      "effectiveGasPrice": "0xcf4d6e62",
      "from": "0x0000071763daa95626125986d95f7c7748a1bfe3",
      "to": "0x25184f590aaf61d41677ea3cd6df009deaebbb13",
      "contractAddress": null
    }
  ],
  "libraries": [],
  "pending": [],
  "returns": {},
  "timestamp": 1755402182,
  "chain": 1329,
  "commit": "b329af5"
}