{
  "transactions": [
    {
      "hash": "0x2757eb932a5bf7aef7fac58a09b2082a6a9c04c2a51c07ac5615ac913070e77d",
      "transactionType": "CALL",
      "contractName": null,
      "contractAddress": "0x51121bcae92e302f19d06c193c95e1f7b81a444b",
      "function": "approve(address,uint256)",
      "arguments": [
        "0x2fB0DA76902E13810460A80045C3FC5170776543",
        "2000000000000000000"
      ],
      "transaction": {
        "from": "0x0000071763daa95626125986d95f7c7748a1bfe3",
        "to": "0x51121bcae92e302f19d06c193c95e1f7b81a444b",
        "gas": "0xf934",
        "value": "0x0",
        "input": "0x095ea7b30000000000000000000000002fb0da76902e13810460a80045c3fc51707765430000000000000000000000000000000000000000000000001bc16d674ec80000",
        "nonce": "0x16",
        "chainId": "0x531"
      },
      "additionalContracts": [],
      "isFixedGasLimit": false
    },
    {
      "hash": "0xfab70920aa77a5ad3bf9b1104052e6f8253dfbed73f8b396ed98a96bb64915d7",
      "transactionType": "CALL",
      "contractName": null,
      "contractAddress": "0x2fb0da76902e13810460a80045c3fc5170776543",
      "function": "manualCompound(uint256)",
      "arguments": [
        "2000000000000000000"
      ],
      "transaction": {
        "from": "0x0000071763daa95626125986d95f7c7748a1bfe3",
        "to": "0x2fb0da76902e13810460a80045c3fc5170776543",
        "gas": "0x54458",
        "value": "0x0",
        "input": "0x1ddc79120000000000000000000000000000000000000000000000001bc16d674ec80000",
        "nonce": "0x17",
        "chainId": "0x531"
      },
      "additionalContracts": [],
      "isFixedGasLimit": false
    },
    {
      "hash": "0x78cdbca38e97c7e360afc07c330ef48e1f0a652a0190e35dabd1be1cb09fb431",
      "transactionType": "CALL",
      "contractName": null,
      "contractAddress": "0x51121bcae92e302f19d06c193c95e1f7b81a444b",
      "function": "approve(address,uint256)",
      "arguments": [
        "0x2fB0DA76902E13810460A80045C3FC5170776543",
        "1000000000000000000"
      ],
      "transaction": {
        "from": "0x0000071763daa95626125986d95f7c7748a1bfe3",
        "to": "0x51121bcae92e302f19d06c193c95e1f7b81a444b",
        "gas": "0xf934",
        "value": "0x0",
        "input": "0x095ea7b30000000000000000000000002fb0da76902e13810460a80045c3fc51707765430000000000000000000000000000000000000000000000000de0b6b3a7640000",
        "nonce": "0x18",
        "chainId": "0x531"
      },
      "additionalContracts": [],
      "isFixedGasLimit": false
    },
    {
      "hash": "0xfec8e32443b612683c9c2a2130152b677cbf36f69d098155876c327e5cf8c111",
      "transactionType": "CALL",
      "contractName": null,
      "contractAddress": "0x2fb0da76902e13810460a80045c3fc5170776543",
      "function": "deposit(uint256)",
      "arguments": [
        "1000000000000000000"
      ],
      "transaction": {
        "from": "0x0000071763daa95626125986d95f7c7748a1bfe3",
        "to": "0x2fb0da76902e13810460a80045c3fc5170776543",
        "gas": "0x5c810",
        "value": "0x0",
        "input": "0xb6b55f250000000000000000000000000000000000000000000000000de0b6b3a7640000",
        "nonce": "0x19",
        "chainId": "0x531"
      },
      "additionalContracts": [],
      "isFixedGasLimit": false
    }
  ],
  "receipts": [
    {
      "status": "0x1",
      "cumulativeGasUsed": "0x0",
      "logs": [
        {
          "address": "0x51121bcae92e302f19d06c193c95e1f7b81a444b",
          "topics": [
            "0x8c5be1e5ebec7d5bd14f71427d1e84f3dd0314c0f7b2291e5b200ac8c7c3b925",
            "0x0000000000000000000000000000071763daa95626125986d95f7c7748a1bfe3",
            "0x0000000000000000000000002fb0da76902e13810460a80045c3fc5170776543"
          ],
          "data": "0x0000000000000000000000000000000000000000000000001bc16d674ec80000",
          "blockHash": "0xc5dcef5a97229733a9291947f6d059b74871491a48400a333285813c7210dc59",
          "blockNumber": "0x9a7a0b6",
          "transactionHash": "0x2757eb932a5bf7aef7fac58a09b2082a6a9c04c2a51c07ac5615ac913070e77d",
          "transactionIndex": "0xc",
          "logIndex": "0x13",
          "removed": false
        }
      ],
      "logsBloom": "0x00000000000000000000000000080000000000000000000000000000000000000000000000000000000000000000000000000000000000000000000000200000200000000000000000000000008000000000000000002000000000000000000000000000000000000000000000000000000000000000000000000000000000000000800100000000000000000000000000000000000000000000000000000000020004000000000000000000000000000000000000000000000000000000000000000000000800000000000000000000000000000000000000004000000000000010000000000000000000000000000000000000000000000000000000000000",
      "type": "0x2",
      "transactionHash": "0x2757eb932a5bf7aef7fac58a09b2082a6a9c04c2a51c07ac5615ac913070e77d",
      "transactionIndex": "0xc",
      "blockHash": "0xc5dcef5a97229733a9291947f6d059b74871491a48400a333285813c7210dc59",
      "blockNumber": "0x9a7a0b6",
      "gasUsed": "0xb46c",
      "effectiveGasPrice": "0x973df4fb",
      "from": "0x0000071763daa95626125986d95f7c7748a1bfe3",
      "to": "0x51121bcae92e302f19d06c193c95e1f7b81a444b",
      "contractAddress": null
    },
    {
      "status": "0x1",
      "cumulativeGasUsed": "0x0",
      "logs": [
        {
          "address": "0x51121bcae92e302f19d06c193c95e1f7b81a444b",
          "topics": [
            "0xddf252ad1be2c89b69c2b068fc378daa952ba7f163c4a11628f55a4df523b3ef",
            "0x0000000000000000000000000000071763daa95626125986d95f7c7748a1bfe3",
            "0x0000000000000000000000002fb0da76902e13810460a80045c3fc5170776543"
          ],
          "data": "0x0000000000000000000000000000000000000000000000001bc16d674ec80000",
          "blockHash": "0xfb2f0ec5d6a2c6cd68001ea8b9045530c70a62006200cf271633c43c43b4277e",
          "blockNumber": "0x9a7a0b7",
          "transactionHash": "0xfab70920aa77a5ad3bf9b1104052e6f8253dfbed73f8b396ed98a96bb64915d7",
          "transactionIndex": "0x13",
          "logIndex": "0x12",
          "removed": false
        },
        {
          "address": "0x51121bcae92e302f19d06c193c95e1f7b81a444b",
          "topics": [
            "0xddf252ad1be2c89b69c2b068fc378daa952ba7f163c4a11628f55a4df523b3ef",
            "0x0000000000000000000000002fb0da76902e13810460a80045c3fc5170776543",
            "0x00000000000000000000000086a247ef0fc244565bcab93936e867407ac81580"
          ],
          "data": "0x0000000000000000000000000000000000000000000000001bc16d674ec80000",
          "blockHash": "0xfb2f0ec5d6a2c6cd68001ea8b9045530c70a62006200cf271633c43c43b4277e",
          "blockNumber": "0x9a7a0b7",
          "transactionHash": "0xfab70920aa77a5ad3bf9b1104052e6f8253dfbed73f8b396ed98a96bb64915d7",
          "transactionIndex": "0x13",
          "logIndex": "0x13",
          "removed": false
        },
        {
          "address": "0x86a247ef0fc244565bcab93936e867407ac81580",
          "topics": [
            "0xff04ccafc360e16b67d682d17bd9503c4c6b9a131f6be6325762dc9ffc7de624",
            "0x0000000000000000000000002fb0da76902e13810460a80045c3fc5170776543",
            "0x000000000000000000000000000000000000000000000000000000006c53b080"
          ],
          "data": "0x00000000000000000000000000000000000000000000000000000000000009790000000000000000000000000000000000000000000000001bc16d674ec800000000000000000000000000000000000000000000000000000000000000000000000000000000000000000000000000000000000000000000000000006898a0e7",
          "blockHash": "0xfb2f0ec5d6a2c6cd68001ea8b9045530c70a62006200cf271633c43c43b4277e",
          "blockNumber": "0x9a7a0b7",
          "transactionHash": "0xfab70920aa77a5ad3bf9b1104052e6f8253dfbed73f8b396ed98a96bb64915d7",
          "transactionIndex": "0x13",
          "logIndex": "0x14",
          "removed": false
        },
        {
          "address": "0x86a247ef0fc244565bcab93936e867407ac81580",
          "topics": [
            "0x5e2aa66efd74cce82b21852e317e5490d9ecc9e6bb953ae24d90851258cc2f5c"
          ],
          "data": "0x0000000000000000000000000000000000000000029503dfaeeb373f585873b60000000000000000000000000000000000000000029503dfcaaca4a6a72073b6",
          "blockHash": "0xfb2f0ec5d6a2c6cd68001ea8b9045530c70a62006200cf271633c43c43b4277e",
          "blockNumber": "0x9a7a0b7",
          "transactionHash": "0xfab70920aa77a5ad3bf9b1104052e6f8253dfbed73f8b396ed98a96bb64915d7",
          "transactionIndex": "0x13",
          "logIndex": "0x15",
          "removed": false
        },
        {
          "address": "0x2fb0da76902e13810460a80045c3fc5170776543",
          "topics": [
            "0x0861422384193ce1f0b060f9ea8f13f1e23440f3c2009afdbca9092105170135"
          ],
          "data": "0x0000000000000000000000000000000000000000000000001bc16d674ec80000",
          "blockHash": "0xfb2f0ec5d6a2c6cd68001ea8b9045530c70a62006200cf271633c43c43b4277e",
          "blockNumber": "0x9a7a0b7",
          "transactionHash": "0xfab70920aa77a5ad3bf9b1104052e6f8253dfbed73f8b396ed98a96bb64915d7",
          "transactionIndex": "0x13",
          "logIndex": "0x16",
          "removed": false
        }
      ],
      "logsBloom": "0x00000000000000000000010000880000000100400408100000000000000000000000000000000000000000000000010000000000000000000810000000000000200000000000000000000008008000000000000000002000000000000000000000000000000000000004800000000000000000000000000010000010000000000000800100000000000000000000000000000000000000000000000001000000000004000000000000000000000000000000000000000000000000000000002000008002000800000080000000000040000000000200000000004000000000000000080000000000000040000000000000000000000000000000000000000000",
      "type": "0x2",
      "transactionHash": "0xfab70920aa77a5ad3bf9b1104052e6f8253dfbed73f8b396ed98a96bb64915d7",
      "transactionIndex": "0x13",
      "blockHash": "0xfb2f0ec5d6a2c6cd68001ea8b9045530c70a62006200cf271633c43c43b4277e",
      "blockNumber": "0x9a7a0b7",
      "gasUsed": "0x399f2",
      "effectiveGasPrice": "0x973df4fb",
      "from": "0x0000071763daa95626125986d95f7c7748a1bfe3",
      "to": "0x2fb0da76902e13810460a80045c3fc5170776543",
      "contractAddress": null
    },
    {
      "status": "0x1",
      "cumulativeGasUsed": "0x0",
      "logs": [
        {
          "address": "0x51121bcae92e302f19d06c193c95e1f7b81a444b",
          "topics": [
            "0x8c5be1e5ebec7d5bd14f71427d1e84f3dd0314c0f7b2291e5b200ac8c7c3b925",
            "0x0000000000000000000000000000071763daa95626125986d95f7c7748a1bfe3",
            "0x0000000000000000000000002fb0da76902e13810460a80045c3fc5170776543"
          ],
          "data": "0x0000000000000000000000000000000000000000000000000de0b6b3a7640000",
          "blockHash": "0xfb2f0ec5d6a2c6cd68001ea8b9045530c70a62006200cf271633c43c43b4277e",
          "blockNumber": "0x9a7a0b7",
          "transactionHash": "0x78cdbca38e97c7e360afc07c330ef48e1f0a652a0190e35dabd1be1cb09fb431",
          "transactionIndex": "0x14",
          "logIndex": "0x17",
          "removed": false
        }
      ],
      "logsBloom": "0x00000000000000000000000000080000000000000000000000000000000000000000000000000000000000000000000000000000000000000000000000200000200000000000000000000000008000000000000000002000000000000000000000000000000000000000000000000000000000000000000000000000000000000000800100000000000000000000000000000000000000000000000000000000020004000000000000000000000000000000000000000000000000000000000000000000000800000000000000000000000000000000000000004000000000000010000000000000000000000000000000000000000000000000000000000000",
      "type": "0x2",
      "transactionHash": "0x78cdbca38e97c7e360afc07c330ef48e1f0a652a0190e35dabd1be1cb09fb431",
      "transactionIndex": "0x14",
      "blockHash": "0xfb2f0ec5d6a2c6cd68001ea8b9045530c70a62006200cf271633c43c43b4277e",
      "blockNumber": "0x9a7a0b7",
      "gasUsed": "0xb46c",
      "effectiveGasPrice": "0x973df4fb",
      "from": "0x0000071763daa95626125986d95f7c7748a1bfe3",
      "to": "0x51121bcae92e302f19d06c193c95e1f7b81a444b",
      "contractAddress": null
    },
    {
      "status": "0x1",
      "cumulativeGasUsed": "0x0",
      "logs": [
        {
          "address": "0x51121bcae92e302f19d06c193c95e1f7b81a444b",
          "topics": [
            "0xddf252ad1be2c89b69c2b068fc378daa952ba7f163c4a11628f55a4df523b3ef",
            "0x0000000000000000000000000000071763daa95626125986d95f7c7748a1bfe3",
            "0x0000000000000000000000002fb0da76902e13810460a80045c3fc5170776543"
          ],
          "data": "0x0000000000000000000000000000000000000000000000000de0b6b3a7640000",
          "blockHash": "0xfb2f0ec5d6a2c6cd68001ea8b9045530c70a62006200cf271633c43c43b4277e",
          "blockNumber": "0x9a7a0b7",
          "transactionHash": "0xfec8e32443b612683c9c2a2130152b677cbf36f69d098155876c327e5cf8c111",
          "transactionIndex": "0x15",
          "logIndex": "0x18",
          "removed": false
        },
        {
          "address": "0x51121bcae92e302f19d06c193c95e1f7b81a444b",
          "topics": [
            "0xddf252ad1be2c89b69c2b068fc378daa952ba7f163c4a11628f55a4df523b3ef",
            "0x0000000000000000000000002fb0da76902e13810460a80045c3fc5170776543",
            "0x00000000000000000000000086a247ef0fc244565bcab93936e867407ac81580"
          ],
          "data": "0x0000000000000000000000000000000000000000000000000de0b6b3a7640000",
          "blockHash": "0xfb2f0ec5d6a2c6cd68001ea8b9045530c70a62006200cf271633c43c43b4277e",
          "blockNumber": "0x9a7a0b7",
          "transactionHash": "0xfec8e32443b612683c9c2a2130152b677cbf36f69d098155876c327e5cf8c111",
          "transactionIndex": "0x15",
          "logIndex": "0x19",
          "removed": false
        },
        {
          "address": "0x86a247ef0fc244565bcab93936e867407ac81580",
          "topics": [
            "0xff04ccafc360e16b67d682d17bd9503c4c6b9a131f6be6325762dc9ffc7de624",
            "0x0000000000000000000000002fb0da76902e13810460a80045c3fc5170776543",
            "0x000000000000000000000000000000000000000000000000000000006c53b080"
          ],
          "data": "0x00000000000000000000000000000000000000000000000000000000000009790000000000000000000000000000000000000000000000000de0b6b3a76400000000000000000000000000000000000000000000000000000000000000000000000000000000000000000000000000000000000000000000000000006898a0e7",
          "blockHash": "0xfb2f0ec5d6a2c6cd68001ea8b9045530c70a62006200cf271633c43c43b4277e",
          "blockNumber": "0x9a7a0b7",
          "transactionHash": "0xfec8e32443b612683c9c2a2130152b677cbf36f69d098155876c327e5cf8c111",
          "transactionIndex": "0x15",
          "logIndex": "0x1a",
          "removed": false
        },
        {
          "address": "0x86a247ef0fc244565bcab93936e867407ac81580",
          "topics": [
            "0x5e2aa66efd74cce82b21852e317e5490d9ecc9e6bb953ae24d90851258cc2f5c"
          ],
          "data": "0x0000000000000000000000000000000000000000029503dfcaaca4a6a72073b60000000000000000000000000000000000000000029503dfd88d5b5a4e8473b6",
          "blockHash": "0xfb2f0ec5d6a2c6cd68001ea8b9045530c70a62006200cf271633c43c43b4277e",
          "blockNumber": "0x9a7a0b7",
          "transactionHash": "0xfec8e32443b612683c9c2a2130152b677cbf36f69d098155876c327e5cf8c111",
          "transactionIndex": "0x15",
          "logIndex": "0x1b",
          "removed": false
        },
        {
          "address": "0xfeec14a2e30999a84ff4d5750ffb6d3aec681e79",
          "topics": [
            "0xddf252ad1be2c89b69c2b068fc378daa952ba7f163c4a11628f55a4df523b3ef",
            "0x0000000000000000000000000000000000000000000000000000000000000000",
            "0x0000000000000000000000000000071763daa95626125986d95f7c7748a1bfe3"
          ],
          "data": "0x0000000000000000000000000000000000000000000000000b1a2bc2ec500000",
          "blockHash": "0xfb2f0ec5d6a2c6cd68001ea8b9045530c70a62006200cf271633c43c43b4277e",
          "blockNumber": "0x9a7a0b7",
          "transactionHash": "0xfec8e32443b612683c9c2a2130152b677cbf36f69d098155876c327e5cf8c111",
          "transactionIndex": "0x15",
          "logIndex": "0x1c",
          "removed": false
        },
        {
          "address": "0x2fb0da76902e13810460a80045c3fc5170776543",
          "topics": [
            "0x90890809c654f11d6e72a28fa60149770a0d11ec6c92319d6ceb2bb0a4ea1a15",
            "0x0000000000000000000000000000071763daa95626125986d95f7c7748a1bfe3"
          ],
          "data": "0x0000000000000000000000000000000000000000000000000de0b6b3a76400000000000000000000000000000000000000000000000000000b1a2bc2ec500000",
          "blockHash": "0xfb2f0ec5d6a2c6cd68001ea8b9045530c70a62006200cf271633c43c43b4277e",
          "blockNumber": "0x9a7a0b7",
          "transactionHash": "0xfec8e32443b612683c9c2a2130152b677cbf36f69d098155876c327e5cf8c111",
          "transactionIndex": "0x15",
          "logIndex": "0x1d",
          "removed": false
        }
      ],
      "logsBloom": "0x00000000000000000000010000080000000100400408100000000000000000000000000000000000000000000000010008000000000000001810000000000000200100000000000000000008008000000000000000002000000000000000000000000000020000000004800000000800000000000000000000000010000000000000800100000000000000000000000000000000000000000000000001000000000004000000000000000000000000000000000000000000000000000000002000008002000800000080000000000040000000000200000000004000000020000000080000000000000040000000000000000000400000000000000000002000",
      "type": "0x2",
      "transactionHash": "0xfec8e32443b612683c9c2a2130152b677cbf36f69d098155876c327e5cf8c111",
      "transactionIndex": "0x15",
      "blockHash": "0xfb2f0ec5d6a2c6cd68001ea8b9045530c70a62006200cf271633c43c43b4277e",
      "blockNumber": "0x9a7a0b7",
      "gasUsed": "0x3f403",
      "effectiveGasPrice": "0x973df4fb",
      "from": "0x0000071763daa95626125986d95f7c7748a1bfe3",
      "to": "0x2fb0da76902e13810460a80045c3fc5170776543",
      "contractAddress": null
    }
  ],
  "libraries": [],
  "pending": [],
  "returns": {},
  "timestamp": 1754833130,
  "chain": 1329,
  "commit": "3042979"
}