{
  "transactions": [
    {
      "hash": "0x74fbff41ea01898132c781923f7175f984e396b34a42aaadd8085972a186b269",
      "transactionType": "CALL",
      "contractName": null,
      "contractAddress": "0x6d5fe504b236738d160b56a493f8c369fd5eb433",
      "function": "vote(address[],uint256[])",
      "arguments": [
        "[0xef3a845A6da5e00599e097c8a0E062dcFF45DFfc]",
        "[10000]"
      ],
      "transaction": {
        "from": "0x0000071763daa95626125986d95f7c7748a1bfe3",
        "to": "0x6d5fe504b236738d160b56a493f8c369fd5eb433",
        "gas": "0x850e9",
        "value": "0x0",
        "input": "0x6f816a20000000000000000000000000000000000000000000000000000000000000004000000000000000000000000000000000000000000000000000000000000000800000000000000000000000000000000000000000000000000000000000000001000000000000000000000000ef3a845a6da5e00599e097c8a0e062dcff45dffc00000000000000000000000000000000000000000000000000000000000000010000000000000000000000000000000000000000000000000000000000002710",
        "nonce": "0xc",
        "chainId": "0x531"
      },
      "additionalContracts": [],
      "isFixedGasLimit": false
    }
  ],
  "receipts": [
    {
      "status": "0x1",
      "cumulativeGasUsed": "0x0",
      "logs": [
        {
          "address": "0x02330bd932d89c43d5834c8920314d4d74cd2184",
          "topics": [
            "0x925435fa7e37e5d9555bb18ce0d62bb9627d0846942e58e5291e9a2dded462ed",
            "0x0000000000000000000000000000000000000000000000000000000000000978"
          ],
          "data": "0x00000000000000000000000000000000000000000000000052a25bc651b383a6",
          "blockHash": "0x370d5d6f55b1c26c93b810aafc7ec0ad7b55f15654921d1bd4696cdcc405d246",
          "blockNumber": "0x9a79097",
          "transactionHash": "0x74fbff41ea01898132c781923f7175f984e396b34a42aaadd8085972a186b269",
          "transactionIndex": "0xc",
          "logIndex": "0x18",
          "removed": false
        },
        {
          "address": "0xa5bf73f4eac1045a765b742f6040abd53f3f9aec",
          "topics": [
            "0x925435fa7e37e5d9555bb18ce0d62bb9627d0846942e58e5291e9a2dded462ed",
            "0x0000000000000000000000000000000000000000000000000000000000000978"
          ],
          "data": "0x00000000000000000000000000000000000000000000000052a25bc651b383a6",
          "blockHash": "0x370d5d6f55b1c26c93b810aafc7ec0ad7b55f15654921d1bd4696cdcc405d246",
          "blockNumber": "0x9a79097",
          "transactionHash": "0x74fbff41ea01898132c781923f7175f984e396b34a42aaadd8085972a186b269",
          "transactionIndex": "0xc",
          "logIndex": "0x19",
          "removed": false
        },
        {
          "address": "0x36068f15f257896e03fb7edba3d18898d0ade809",
          "topics": [
            "0xea66f58e474bc09f580000e81f31b334d171db387d0c6098ba47bd897741679b",
            "0x0000000000000000000000006d5fe504b236738d160b56a493f8c369fd5eb433"
          ],
          "data": "0x000000000000000000000000000000000000000000000000000000000000097800000000000000000000000000000000000000000000000052a25bc651b383a6",
          "blockHash": "0x370d5d6f55b1c26c93b810aafc7ec0ad7b55f15654921d1bd4696cdcc405d246",
          "blockNumber": "0x9a79097",
          "transactionHash": "0x74fbff41ea01898132c781923f7175f984e396b34a42aaadd8085972a186b269",
          "transactionIndex": "0xc",
          "logIndex": "0x1a",
          "removed": false
        },
        {
          "address": "0x6d5fe504b236738d160b56a493f8c369fd5eb433",
          "topics": [
            "0xa7f048f16b454219eae2745b4c400cc9cb8573261104e58f71da635bb5a9ed09"
          ],
          "data": "0x000000000000000000000000000000000000000000000000000000000000004000000000000000000000000000000000000000000000000000000000000000800000000000000000000000000000000000000000000000000000000000000001000000000000000000000000ef3a845a6da5e00599e097c8a0e062dcff45dffc00000000000000000000000000000000000000000000000000000000000000010000000000000000000000000000000000000000000000000000000000002710",
          "blockHash": "0x370d5d6f55b1c26c93b810aafc7ec0ad7b55f15654921d1bd4696cdcc405d246",
          "blockNumber": "0x9a79097",
          "transactionHash": "0x74fbff41ea01898132c781923f7175f984e396b34a42aaadd8085972a186b269",
          "transactionIndex": "0xc",
          "logIndex": "0x1b",
          "removed": false
        }
      ],
      "logsBloom": "0x00000000000001000000100000020000000008000000000000000000000000000000001000000000000000000400000000000000400000000000000000000000000000000000800000000000000000000000000000000004000000000000080800000000040000000000000000000000000000000000000000000000000000000000000000000000000080000000000000100020000020000000000000000000000040000000000000000004000000000040000000000000000000000000800000000000000000000000000000000040001000001000100000000000000000000000000000000000000000000000004000000000100000000000000001000000",
      "type": "0x2",
      "transactionHash": "0x74fbff41ea01898132c781923f7175f984e396b34a42aaadd8085972a186b269",
      "transactionIndex": "0xc",
      "blockHash": "0x370d5d6f55b1c26c93b810aafc7ec0ad7b55f15654921d1bd4696cdcc405d246",
      "blockNumber": "0x9a79097",
      "gasUsed": "0x6054c",
      "effectiveGasPrice": "0x7df67e4f",
      "from": "0x0000071763daa95626125986d95f7c7748a1bfe3",
      "to": "0x6d5fe504b236738d160b56a493f8c369fd5eb433",
      "contractAddress": null
    }
  ],
  "libraries": [],
  "pending": [],
  "returns": {},
  "timestamp": 1754831113,
  "chain": 1329,
  "commit": "507a526"
}