{
  "transactions": [
    {
      "hash": "0xb3478b1ef2752ea460b62aca5fd34326e4956e7f7abe931f2404cd3d10ea40ec",
      "transactionType": "CALL",
      "contractName": null,
      "contractAddress": "0x2fb0da76902e13810460a80045c3fc5170776543",
      "function": "vote(address[],uint256[])",
      "arguments": [
        "[0xef3a845A6da5e00599e097c8a0E062dcFF45DFfc]",
        "[10000]"
      ],
      "transaction": {
        "from": "0x0000071763daa95626125986d95f7c7748a1bfe3",
        "to": "0x2fb0da76902e13810460a80045c3fc5170776543",
        "gas": "0x850e9",
        "value": "0x0",
        "input": "0x6f816a20000000000000000000000000000000000000000000000000000000000000004000000000000000000000000000000000000000000000000000000000000000800000000000000000000000000000000000000000000000000000000000000001000000000000000000000000ef3a845a6da5e00599e097c8a0e062dcff45dffc00000000000000000000000000000000000000000000000000000000000000010000000000000000000000000000000000000000000000000000000000002710",
        "nonce": "0x1e",
        "chainId": "0x531"
      },
      "additionalContracts": [],
      "isFixedGasLimit": false
    }
  ],
  "receipts": [
    {
      "status": "0x1",
      "cumulativeGasUsed": "0x0",
      "logs": [
        {
          "address": "0x02330bd932d89c43d5834c8920314d4d74cd2184",
          "topics": [
            "0x925435fa7e37e5d9555bb18ce0d62bb9627d0846942e58e5291e9a2dded462ed",
            "0x0000000000000000000000000000000000000000000000000000000000000980"
          ],
          "data": "0x0000000000000000000000000000000000000000000000012e386d497d547573",
          "blockHash": "0xb0516adda026f07ff1c4627b2507c9bd98befd4727a4d2d17686e284047e281a",
          "blockNumber": "0x9ac63e2",
          "transactionHash": "0xb3478b1ef2752ea460b62aca5fd34326e4956e7f7abe931f2404cd3d10ea40ec",
          "transactionIndex": "0xa",
          "logIndex": "0x11",
          "removed": false
        },
        {
          "address": "0xa5bf73f4eac1045a765b742f6040abd53f3f9aec",
          "topics": [
            "0x925435fa7e37e5d9555bb18ce0d62bb9627d0846942e58e5291e9a2dded462ed",
            "0x0000000000000000000000000000000000000000000000000000000000000980"
          ],
          "data": "0x0000000000000000000000000000000000000000000000012e386d497d547573",
          "blockHash": "0xb0516adda026f07ff1c4627b2507c9bd98befd4727a4d2d17686e284047e281a",
          "blockNumber": "0x9ac63e2",
          "transactionHash": "0xb3478b1ef2752ea460b62aca5fd34326e4956e7f7abe931f2404cd3d10ea40ec",
          "transactionIndex": "0xa",
          "logIndex": "0x12",
          "removed": false
        },
        {
          "address": "0x36068f15f257896e03fb7edba3d18898d0ade809",
          "topics": [
            "0xea66f58e474bc09f580000e81f31b334d171db387d0c6098ba47bd897741679b",
            "0x0000000000000000000000002fb0da76902e13810460a80045c3fc5170776543"
          ],
          "data": "0x00000000000000000000000000000000000000000000000000000000000009800000000000000000000000000000000000000000000000012e386d497d547573",
          "blockHash": "0xb0516adda026f07ff1c4627b2507c9bd98befd4727a4d2d17686e284047e281a",
          "blockNumber": "0x9ac63e2",
          "transactionHash": "0xb3478b1ef2752ea460b62aca5fd34326e4956e7f7abe931f2404cd3d10ea40ec",
          "transactionIndex": "0xa",
          "logIndex": "0x13",
          "removed": false
        },
        {
          "address": "0x2fb0da76902e13810460a80045c3fc5170776543",
          "topics": [
            "0xa7f048f16b454219eae2745b4c400cc9cb8573261104e58f71da635bb5a9ed09"
          ],
          "data": "0x000000000000000000000000000000000000000000000000000000000000004000000000000000000000000000000000000000000000000000000000000000800000000000000000000000000000000000000000000000000000000000000001000000000000000000000000ef3a845a6da5e00599e097c8a0e062dcff45dffc00000000000000000000000000000000000000000000000000000000000000010000000000000000000000000000000000000000000000000000000000002710",
          "blockHash": "0xb0516adda026f07ff1c4627b2507c9bd98befd4727a4d2d17686e284047e281a",
          "blockNumber": "0x9ac63e2",
          "transactionHash": "0xb3478b1ef2752ea460b62aca5fd34326e4956e7f7abe931f2404cd3d10ea40ec",
          "transactionIndex": "0xa",
          "logIndex": "0x14",
          "removed": false
        }
      ],
      "logsBloom": "0x000000000000000000001000000a0000000108000000100000000000000000000000001000000000000000000400000000000000000000000000000000000000000000000000800000000000000000000000000000000000000000000000000000000000040000000000800000000000000000000000002000000000000000000000000000000000000080000000000000100020000020000000000000000000000040000000000000000000000000000004000000000000000000000000800000000000000800000000000000000040001000001000000000004000000000000000000000000000000000000000004000000000100000000000000000000000",
      "type": "0x2",
      "transactionHash": "0xb3478b1ef2752ea460b62aca5fd34326e4956e7f7abe931f2404cd3d10ea40ec",
      "transactionIndex": "0xa",
      "blockHash": "0xb0516adda026f07ff1c4627b2507c9bd98befd4727a4d2d17686e284047e281a",
      "blockNumber": "0x9ac63e2",
      "gasUsed": "0x6054c",
      "effectiveGasPrice": "0x7d35a472",
      "from": "0x0000071763daa95626125986d95f7c7748a1bfe3",
      "to": "0x2fb0da76902e13810460a80045c3fc5170776543",
      "contractAddress": null
    }
  ],
  "libraries": [],
  "pending": [],
  "returns": {},
  "timestamp": 1754990530,
  "chain": 1329,
  "commit": "3042979"
}