{
  "transactions": [
    {
      "hash": "0x8da32dc4d2933d31cfbfb56260c3b9255d18bc8dd4ea5a133e871d1de037be56",
      "transactionType": "CALL",
      "contractName": null,
      "contractAddress": "0x9833f68dab132e432ac8bca160f60b77af36a306",
      "function": "vote(address[],uint256[])",
      "arguments": [
        "[0xef3a845A6da5e00599e097c8a0E062dcFF45DFfc]",
        "[10000]"
      ],
      "transaction": {
        "from": "0x0000071763daa95626125986d95f7c7748a1bfe3",
        "to": "0x9833f68dab132e432ac8bca160f60b77af36a306",
        "gas": "0x84c23",
        "value": "0x0",
        "input": "0x6f816a20000000000000000000000000000000000000000000000000000000000000004000000000000000000000000000000000000000000000000000000000000000800000000000000000000000000000000000000000000000000000000000000001000000000000000000000000ef3a845a6da5e00599e097c8a0e062dcff45dffc00000000000000000000000000000000000000000000000000000000000000010000000000000000000000000000000000000000000000000000000000002710",
        "nonce": "0x32",
        "chainId": "0x531"
      },
      "additionalContracts": [],
      "isFixedGasLimit": false
    }
  ],
  "receipts": [
    {
      "status": "0x1",
      "cumulativeGasUsed": "0x0",
      "logs": [
        {
          "address": "0x02330bd932d89c43d5834c8920314d4d74cd2184",
          "topics": [
            "0x925435fa7e37e5d9555bb18ce0d62bb9627d0846942e58e5291e9a2dded462ed",
            "0x000000000000000000000000000000000000000000000000000000000000098c"
          ],
          "data": "0x00000000000000000000000000000000000000000000001142a90719c285ae14",
          "blockHash": "0xfb07814f73996aeed99f4edcf0ea068938f0865b8c290093c90f0eaf434421c4",
          "blockNumber": "0x9ae8023",
          "transactionHash": "0x8da32dc4d2933d31cfbfb56260c3b9255d18bc8dd4ea5a133e871d1de037be56",
          "transactionIndex": "0x14",
          "logIndex": "0x10",
          "removed": false
        },
        {
          "address": "0xa5bf73f4eac1045a765b742f6040abd53f3f9aec",
          "topics": [
            "0x925435fa7e37e5d9555bb18ce0d62bb9627d0846942e58e5291e9a2dded462ed",
            "0x000000000000000000000000000000000000000000000000000000000000098c"
          ],
          "data": "0x00000000000000000000000000000000000000000000001142a90719c285ae14",
          "blockHash": "0xfb07814f73996aeed99f4edcf0ea068938f0865b8c290093c90f0eaf434421c4",
          "blockNumber": "0x9ae8023",
          "transactionHash": "0x8da32dc4d2933d31cfbfb56260c3b9255d18bc8dd4ea5a133e871d1de037be56",
          "transactionIndex": "0x14",
          "logIndex": "0x11",
          "removed": false
        },
        {
          "address": "0x36068f15f257896e03fb7edba3d18898d0ade809",
          "topics": [
            "0xea66f58e474bc09f580000e81f31b334d171db387d0c6098ba47bd897741679b",
            "0x0000000000000000000000009833f68dab132e432ac8bca160f60b77af36a306"
          ],
          "data": "0x000000000000000000000000000000000000000000000000000000000000098c00000000000000000000000000000000000000000000001142a90719c285ae14",
          "blockHash": "0xfb07814f73996aeed99f4edcf0ea068938f0865b8c290093c90f0eaf434421c4",
          "blockNumber": "0x9ae8023",
          "transactionHash": "0x8da32dc4d2933d31cfbfb56260c3b9255d18bc8dd4ea5a133e871d1de037be56",
          "transactionIndex": "0x14",
          "logIndex": "0x12",
          "removed": false
        },
        {
          "address": "0x9833f68dab132e432ac8bca160f60b77af36a306",
          "topics": [
            "0xa7f048f16b454219eae2745b4c400cc9cb8573261104e58f71da635bb5a9ed09"
          ],
          "data": "0x000000000000000000000000000000000000000000000000000000000000004000000000000000000000000000000000000000000000000000000000000000800000000000000000000000000000000000000000000000000000000000000001000000000000000000000000ef3a845a6da5e00599e097c8a0e062dcff45dffc00000000000000000000000000000000000000000000000000000000000000010000000000000000000000000000000000000000000000000000000000002710",
          "blockHash": "0xfb07814f73996aeed99f4edcf0ea068938f0865b8c290093c90f0eaf434421c4",
          "blockNumber": "0x9ae8023",
          "transactionHash": "0x8da32dc4d2933d31cfbfb56260c3b9255d18bc8dd4ea5a133e871d1de037be56",
          "transactionIndex": "0x14",
          "logIndex": "0x13",
          "removed": false
        }
      ],
      "logsBloom": "0x00000000000000000000300000020000000008000000000000020000000000000000001000000000000000000400000000000000000000000000000000000000000000000000800000000100000000000000000000000000000000000000000000000000040000000008000000000000000000000000000000000000000100000000000000000000000080000000000000100020000020000000000000000000000040000000000000000000000000000000000000000000000000000000800800000000000000000000000000000040801000001000000000000000000000000000000000000200000000000000004000000000100000000000000000000000",
      "type": "0x2",
      "transactionHash": "0x8da32dc4d2933d31cfbfb56260c3b9255d18bc8dd4ea5a133e871d1de037be56",
      "transactionIndex": "0x14",
      "blockHash": "0xfb07814f73996aeed99f4edcf0ea068938f0865b8c290093c90f0eaf434421c4",
      "blockNumber": "0x9ae8023",
      "gasUsed": "0x601d7",
      "effectiveGasPrice": "0x7d3ae23c",
      "from": "0x0000071763daa95626125986d95f7c7748a1bfe3",
      "to": "0x9833f68dab132e432ac8bca160f60b77af36a306",
      "contractAddress": null
    }
  ],
  "libraries": [],
  "pending": [],
  "returns": {},
  "timestamp": 1755059182,
  "chain": 1329,
  "commit": "d14fc81"
}