{
  "transactions": [
    {
      "hash": "0x5bb22048cd3c1db211069480dc777776b066244fa5ab9cf7b624803224e83c92",
      "transactionType": "CALL",
      "contractName": null,
      "contractAddress": "0x2fb0da76902e13810460a80045c3fc5170776543",
      "function": "vote(address[],uint256[])",
      "arguments": [
        "[0xef3a845A6da5e00599e097c8a0E062dcFF45DFfc]",
        "[10000]"
      ],
      "transaction": {
        "from": "0x0000071763daa95626125986d95f7c7748a1bfe3",
        "to": "0x2fb0da76902e13810460a80045c3fc5170776543",
        "value": "0x0",
        "input": "0x6f816a20000000000000000000000000000000000000000000000000000000000000004000000000000000000000000000000000000000000000000000000000000000800000000000000000000000000000000000000000000000000000000000000001000000000000000000000000ef3a845a6da5e00599e097c8a0e062dcff45dffc00000000000000000000000000000000000000000000000000000000000000010000000000000000000000000000000000000000000000000000000000002710",
        "nonce": "0x20",
        "chainId": "0x531"
      },
      "additionalContracts": [],
      "isFixedGasLimit": false
    }
  ],
  "receipts": [
    {
      "status": "0x1",
      "cumulativeGasUsed": "0x0",
      "logs": [
        {
          "address": "0x02330bd932d89c43d5834c8920314d4d74cd2184",
          "topics": [
            "0x0c875c8d391179c5cf7ad8303d268efd50b8beb78b671f85cd54bfb91eb8ef40",
            "0x0000000000000000000000000000000000000000000000000000000000000984"
          ],
          "data": "0x00000000000000000000000000000000000000000000000be691e20f26a29ad1",
          "blockHash": "0x348c5139d2996fd17d9dc333a7d1257514669531f6804ba01fc5ac3dcac04b42",
          "blockNumber": "0x9ae6c10",
          "transactionHash": "0x5bb22048cd3c1db211069480dc777776b066244fa5ab9cf7b624803224e83c92",
          "transactionIndex": "0x19",
          "logIndex": "0x30",
          "removed": false
        },
        {
          "address": "0xa5bf73f4eac1045a765b742f6040abd53f3f9aec",
          "topics": [
            "0x0c875c8d391179c5cf7ad8303d268efd50b8beb78b671f85cd54bfb91eb8ef40",
            "0x0000000000000000000000000000000000000000000000000000000000000984"
          ],
          "data": "0x00000000000000000000000000000000000000000000000be691e20f26a29ad1",
          "blockHash": "0x348c5139d2996fd17d9dc333a7d1257514669531f6804ba01fc5ac3dcac04b42",
          "blockNumber": "0x9ae6c10",
          "transactionHash": "0x5bb22048cd3c1db211069480dc777776b066244fa5ab9cf7b624803224e83c92",
          "transactionIndex": "0x19",
          "logIndex": "0x31",
          "removed": false
        },
        {
          "address": "0x36068f15f257896e03fb7edba3d18898d0ade809",
          "topics": [
            "0xa9f3ca5f8a9e1580edb2741e0ba560084ec72e0067ba3423f9e9327a176882db"
          ],
          "data": "0x000000000000000000000000000000000000000000000000000000000000098400000000000000000000000000000000000000000000000be691e20f26a29ad1",
          "blockHash": "0x348c5139d2996fd17d9dc333a7d1257514669531f6804ba01fc5ac3dcac04b42",
          "blockNumber": "0x9ae6c10",
          "transactionHash": "0x5bb22048cd3c1db211069480dc777776b066244fa5ab9cf7b624803224e83c92",
          "transactionIndex": "0x19",
          "logIndex": "0x32",
          "removed": false
        },
        {
          "address": "0x02330bd932d89c43d5834c8920314d4d74cd2184",
          "topics": [
            "0x925435fa7e37e5d9555bb18ce0d62bb9627d0846942e58e5291e9a2dded462ed",
            "0x0000000000000000000000000000000000000000000000000000000000000984"
          ],
          "data": "0x00000000000000000000000000000000000000000000000be6912b950e514dec",
          "blockHash": "0x348c5139d2996fd17d9dc333a7d1257514669531f6804ba01fc5ac3dcac04b42",
          "blockNumber": "0x9ae6c10",
          "transactionHash": "0x5bb22048cd3c1db211069480dc777776b066244fa5ab9cf7b624803224e83c92",
          "transactionIndex": "0x19",
          "logIndex": "0x33",
          "removed": false
        },
        {
          "address": "0xa5bf73f4eac1045a765b742f6040abd53f3f9aec",
          "topics": [
            "0x925435fa7e37e5d9555bb18ce0d62bb9627d0846942e58e5291e9a2dded462ed",
            "0x0000000000000000000000000000000000000000000000000000000000000984"
          ],
          "data": "0x00000000000000000000000000000000000000000000000be6912b950e514dec",
          "blockHash": "0x348c5139d2996fd17d9dc333a7d1257514669531f6804ba01fc5ac3dcac04b42",
          "blockNumber": "0x9ae6c10",
          "transactionHash": "0x5bb22048cd3c1db211069480dc777776b066244fa5ab9cf7b624803224e83c92",
          "transactionIndex": "0x19",
          "logIndex": "0x34",
          "removed": false
        },
        {
          "address": "0x36068f15f257896e03fb7edba3d18898d0ade809",
          "topics": [
            "0xea66f58e474bc09f580000e81f31b334d171db387d0c6098ba47bd897741679b",
            "0x0000000000000000000000002fb0da76902e13810460a80045c3fc5170776543"
          ],
          "data": "0x000000000000000000000000000000000000000000000000000000000000098400000000000000000000000000000000000000000000000be6912b950e514dec",
          "blockHash": "0x348c5139d2996fd17d9dc333a7d1257514669531f6804ba01fc5ac3dcac04b42",
          "blockNumber": "0x9ae6c10",
          "transactionHash": "0x5bb22048cd3c1db211069480dc777776b066244fa5ab9cf7b624803224e83c92",
          "transactionIndex": "0x19",
          "logIndex": "0x35",
          "removed": false
        },
        {
          "address": "0x2fb0da76902e13810460a80045c3fc5170776543",
          "topics": [
            "0xa7f048f16b454219eae2745b4c400cc9cb8573261104e58f71da635bb5a9ed09"
          ],
          "data": "0x000000000000000000000000000000000000000000000000000000000000004000000000000000000000000000000000000000000000000000000000000000800000000000000000000000000000000000000000000000000000000000000001000000000000000000000000ef3a845a6da5e00599e097c8a0e062dcff45dffc00000000000000000000000000000000000000000000000000000000000000010000000000000000000000000000000000000000000000000000000000002710",
          "blockHash": "0x348c5139d2996fd17d9dc333a7d1257514669531f6804ba01fc5ac3dcac04b42",
          "blockNumber": "0x9ae6c10",
          "transactionHash": "0x5bb22048cd3c1db211069480dc777776b066244fa5ab9cf7b624803224e83c92",
          "transactionIndex": "0x19",
          "logIndex": "0x36",
          "removed": false
        }
      ],
      "logsBloom": "0x000000000000000000021004000a0000000108000000100000000000000000000004001000000000000000000400000000000000000000000000000000000000000000000000800000000000000000000004000000000000000000000000000000000000040000000000800000000000000000000000000000000000000000000000400002000000000080000000000000100020000020000000000000000000000040000000000000000000000000020000000000000000000000000000800000000000000800000000000000000040001000001000000000004000000000020000000000000000000000000000004000000000100000000000000000000000",
      "type": "0x2",
      "transactionHash": "0x5bb22048cd3c1db211069480dc777776b066244fa5ab9cf7b624803224e83c92",
      "transactionIndex": "0x19",
      "blockHash": "0x348c5139d2996fd17d9dc333a7d1257514669531f6804ba01fc5ac3dcac04b42",
      "blockNumber": "0x9ae6c10",
      "gasUsed": "0x311d0",
      "effectiveGasPrice": "0x7d4d8f80",
      "from": "0x0000071763daa95626125986d95f7c7748a1bfe3",
      "to": "0x2fb0da76902e13810460a80045c3fc5170776543",
      "contractAddress": null
    }
  ],
  "libraries": [],
  "pending": [],
  "returns": {},
  "timestamp": 1755056617,
  "chain": 1329,
  "commit": "3042979"
}