{
  "transactions": [
    {
      "hash": "0x5afbf38a0f909bae7687c30563d400ebc30b135aef259a693b731bb02088d5b5",
      "transactionType": "CALL",
      "contractName": null,
      "contractAddress": "0x51121bcae92e302f19d06c193c95e1f7b81a444b",
      "function": "approve(address,uint256)",
      "arguments": [
        "0x6d5FE504b236738D160B56A493F8c369fd5eB433",
        "5000000000000000000"
      ],
      "transaction": {
        "from": "0x0000071763daa95626125986d95f7c7748a1bfe3",
        "to": "0x51121bcae92e302f19d06c193c95e1f7b81a444b",
        "gas": "0xf945",
        "value": "0x0",
        "input": "0x095ea7b30000000000000000000000006d5fe504b236738d160b56a493f8c369fd5eb4330000000000000000000000000000000000000000000000004563918244f40000",
        "nonce": "0xa",
        "chainId": "0x531"
      },
      "additionalContracts": [],
      "isFixedGasLimit": false
    },
    {
      "hash": "0x2f63108f022ef816cf895c4384a5d3c47e3ba341ac2a4b66e9052f35b5a01c67",
      "transactionType": "CALL",
      "contractName": null,
      "contractAddress": "0x6d5fe504b236738d160b56a493f8c369fd5eb433",
      "function": "deposit(uint256)",
      "arguments": [
        "5000000000000000000"
      ],
      "transaction": {
        "from": "0x0000071763daa95626125986d95f7c7748a1bfe3",
        "to": "0x6d5fe504b236738d160b56a493f8c369fd5eb433",
        "gas": "0x5c9f0",
        "value": "0x0",
        "input": "0xb6b55f250000000000000000000000000000000000000000000000004563918244f40000",
        "nonce": "0xb",
        "chainId": "0x531"
      },
      "additionalContracts": [],
      "isFixedGasLimit": false
    }
  ],
  "receipts": [
    {
      "status": "0x1",
      "cumulativeGasUsed": "0x0",
      "logs": [
        {
          "address": "0x51121bcae92e302f19d06c193c95e1f7b81a444b",
          "topics": [
            "0x8c5be1e5ebec7d5bd14f71427d1e84f3dd0314c0f7b2291e5b200ac8c7c3b925",
            "0x0000000000000000000000000000071763daa95626125986d95f7c7748a1bfe3",
            "0x0000000000000000000000006d5fe504b236738d160b56a493f8c369fd5eb433"
          ],
          "data": "0x0000000000000000000000000000000000000000000000004563918244f40000",
          "blockHash": "0xff8e288082bbbe76c6190f5e4b9f69d42a25a57a4b2b700a4d4f5a2bde76bfa9",
          "blockNumber": "0x9a78e05",
          "transactionHash": "0x5afbf38a0f909bae7687c30563d400ebc30b135aef259a693b731bb02088d5b5",
          "transactionIndex": "0x11",
          "logIndex": "0x1d",
          "removed": false
        }
      ],
      "logsBloom": "0x00000000000000000000000000000000000000000000000000000000000000000000000000000000000000000000000000000000400000000000000000200000200000000000000000000000008000000000000000002000000000000000000000000000000000000000000000000000000000000000000000000000000000000000800100000000000000000000000000000000000000000000000000000000020004000000000000000000000000000040000000000000000000000000000000000000000000000000000000000000000000000000000000000000000000000010000000000000000000000000000000000000000000000000000001000000",
      "type": "0x2",
      "transactionHash": "0x5afbf38a0f909bae7687c30563d400ebc30b135aef259a693b731bb02088d5b5",
      "transactionIndex": "0x11",
      "blockHash": "0xff8e288082bbbe76c6190f5e4b9f69d42a25a57a4b2b700a4d4f5a2bde76bfa9",
      "blockNumber": "0x9a78e05",
      "gasUsed": "0xb478",
      "effectiveGasPrice": "0x857dfc05",
      "from": "0x0000071763daa95626125986d95f7c7748a1bfe3",
      "to": "0x51121bcae92e302f19d06c193c95e1f7b81a444b",
      "contractAddress": null
    },
    {
      "status": "0x1",
      "cumulativeGasUsed": "0x0",
      "logs": [
        {
          "address": "0x51121bcae92e302f19d06c193c95e1f7b81a444b",
          "topics": [
            "0xddf252ad1be2c89b69c2b068fc378daa952ba7f163c4a11628f55a4df523b3ef",
            "0x0000000000000000000000000000071763daa95626125986d95f7c7748a1bfe3",
            "0x0000000000000000000000006d5fe504b236738d160b56a493f8c369fd5eb433"
          ],
          "data": "0x0000000000000000000000000000000000000000000000004563918244f40000",
          "blockHash": "0x5cb5104ab53acc4120c10d8b1eca18ef56da24fa1887b3245cee00961a6dffdd",
          "blockNumber": "0x9a78e06",
          "transactionHash": "0x2f63108f022ef816cf895c4384a5d3c47e3ba341ac2a4b66e9052f35b5a01c67",
          "transactionIndex": "0x12",
          "logIndex": "0x19",
          "removed": false
        },
        {
          "address": "0x51121bcae92e302f19d06c193c95e1f7b81a444b",
          "topics": [
            "0xddf252ad1be2c89b69c2b068fc378daa952ba7f163c4a11628f55a4df523b3ef",
            "0x0000000000000000000000006d5fe504b236738d160b56a493f8c369fd5eb433",
            "0x00000000000000000000000086a247ef0fc244565bcab93936e867407ac81580"
          ],
          "data": "0x0000000000000000000000000000000000000000000000004563918244f40000",
          "blockHash": "0x5cb5104ab53acc4120c10d8b1eca18ef56da24fa1887b3245cee00961a6dffdd",
          "blockNumber": "0x9a78e06",
          "transactionHash": "0x2f63108f022ef816cf895c4384a5d3c47e3ba341ac2a4b66e9052f35b5a01c67",
          "transactionIndex": "0x12",
          "logIndex": "0x1a",
          "removed": false
        },
        {
          "address": "0x86a247ef0fc244565bcab93936e867407ac81580",
          "topics": [
            "0xff04ccafc360e16b67d682d17bd9503c4c6b9a131f6be6325762dc9ffc7de624",
            "0x0000000000000000000000006d5fe504b236738d160b56a493f8c369fd5eb433",
            "0x000000000000000000000000000000000000000000000000000000006c53b080"
          ],
          "data": "0x00000000000000000000000000000000000000000000000000000000000009780000000000000000000000000000000000000000000000004563918244f40000000000000000000000000000000000000000000000000000000000000000000000000000000000000000000000000000000000000000000000000000689897c2",
          "blockHash": "0x5cb5104ab53acc4120c10d8b1eca18ef56da24fa1887b3245cee00961a6dffdd",
          "blockNumber": "0x9a78e06",
          "transactionHash": "0x2f63108f022ef816cf895c4384a5d3c47e3ba341ac2a4b66e9052f35b5a01c67",
          "transactionIndex": "0x12",
          "logIndex": "0x1b",
          "removed": false
        },
        {
          "address": "0x86a247ef0fc244565bcab93936e867407ac81580",
          "topics": [
            "0x5e2aa66efd74cce82b21852e317e5490d9ecc9e6bb953ae24d90851258cc2f5c"
          ],
          "data": "0x000000000000000000000000000000000000000002950511ae941918c849f2d0000000000000000000000000000000000000000002950511f3f7aa9b0d3df2d0",
          "blockHash": "0x5cb5104ab53acc4120c10d8b1eca18ef56da24fa1887b3245cee00961a6dffdd",
          "blockNumber": "0x9a78e06",
          "transactionHash": "0x2f63108f022ef816cf895c4384a5d3c47e3ba341ac2a4b66e9052f35b5a01c67",
          "transactionIndex": "0x12",
          "logIndex": "0x1c",
          "removed": false
        },
        {
          "address": "0xfeec14a2e30999a84ff4d5750ffb6d3aec681e79",
          "topics": [
            "0xddf252ad1be2c89b69c2b068fc378daa952ba7f163c4a11628f55a4df523b3ef",
            "0x0000000000000000000000000000000000000000000000000000000000000000",
            "0x0000000000000000000000000000071763daa95626125986d95f7c7748a1bfe3"
          ],
          "data": "0x0000000000000000000000000000000000000000000000004563918244f40000",
          "blockHash": "0x5cb5104ab53acc4120c10d8b1eca18ef56da24fa1887b3245cee00961a6dffdd",
          "blockNumber": "0x9a78e06",
          "transactionHash": "0x2f63108f022ef816cf895c4384a5d3c47e3ba341ac2a4b66e9052f35b5a01c67",
          "transactionIndex": "0x12",
          "logIndex": "0x1d",
          "removed": false
        },
        {
          "address": "0x6d5fe504b236738d160b56a493f8c369fd5eb433",
          "topics": [
            "0x90890809c654f11d6e72a28fa60149770a0d11ec6c92319d6ceb2bb0a4ea1a15",
            "0x0000000000000000000000000000071763daa95626125986d95f7c7748a1bfe3"
          ],
          "data": "0x0000000000000000000000000000000000000000000000004563918244f400000000000000000000000000000000000000000000000000004563918244f40000",
          "blockHash": "0x5cb5104ab53acc4120c10d8b1eca18ef56da24fa1887b3245cee00961a6dffdd",
          "blockNumber": "0x9a78e06",
          "transactionHash": "0x2f63108f022ef816cf895c4384a5d3c47e3ba341ac2a4b66e9052f35b5a01c67",
          "transactionIndex": "0x12",
          "logIndex": "0x1e",
          "removed": false
        }
      ],
      "logsBloom": "0x00000000000001000000010000000000000000400408000000000000000000000000000000000000000000000000010008000000400000001810000000000000200100000000000000000008008000000000000000002004000000000000000000000000020000000004000000000800000000000000000000000010000000000000800100000000000000000000000000000000000000000000000001000000000004000000000000000000000000000040000000000000000000000000002000008002000000000080000000000040000000000200100000000000000020000000080000000000000040000000000000000000400000000000000001002000",
      "type": "0x2",
      "transactionHash": "0x2f63108f022ef816cf895c4384a5d3c47e3ba341ac2a4b66e9052f35b5a01c67",
      "transactionIndex": "0x12",
      "blockHash": "0x5cb5104ab53acc4120c10d8b1eca18ef56da24fa1887b3245cee00961a6dffdd",
      "blockNumber": "0x9a78e06",
      "gasUsed": "0x3f54b",
      "effectiveGasPrice": "0x857dfc05",
      "from": "0x0000071763daa95626125986d95f7c7748a1bfe3",
      "to": "0x6d5fe504b236738d160b56a493f8c369fd5eb433",
      "contractAddress": null
    }
  ],
  "libraries": [],
  "pending": [],
  "returns": {},
  "timestamp": 1754830788,
  "chain": 1329,
  "commit": "507a526"
}