{
  "transactions": [
    {
      "hash": "0x95c5d7afe2c7ba2db3ec394fdead3097692f009297a1db20da83871cffef7323",
      "transactionType": "CALL",
      "contractName": null,
      "contractAddress": "0x51121bcae92e302f19d06c193c95e1f7b81a444b",
      "function": "approve(address,uint256)",
      "arguments": [
        "0x2fB0DA76902E13810460A80045C3FC5170776543",
        "3000000000000000000"
      ],
      "transaction": {
        "from": "0x0000071763daa95626125986d95f7c7748a1bfe3",
        "to": "0x51121bcae92e302f19d06c193c95e1f7b81a444b",
        "gas": "0xf934",
        "value": "0x0",
        "input": "0x095ea7b30000000000000000000000002fb0da76902e13810460a80045c3fc517077654300000000000000000000000000000000000000000000000029a2241af62c0000",
        "nonce": "0x14",
        "chainId": "0x531"
      },
      "additionalContracts": [],
      "isFixedGasLimit": false
    },
    {
      "hash": "0x297070bc230b5480eca7da09b946281348b1ccccca5ebaf82657849b7df8bb70",
      "transactionType": "CALL",
      "contractName": null,
      "contractAddress": "0x2fb0da76902e13810460a80045c3fc5170776543",
      "function": "deposit(uint256)",
      "arguments": [
        "3000000000000000000"
      ],
      "transaction": {
        "from": "0x0000071763daa95626125986d95f7c7748a1bfe3",
        "to": "0x2fb0da76902e13810460a80045c3fc5170776543",
        "gas": "0x5c9f0",
        "value": "0x0",
        "input": "0xb6b55f2500000000000000000000000000000000000000000000000029a2241af62c0000",
        "nonce": "0x15",
        "chainId": "0x531"
      },
      "additionalContracts": [],
      "isFixedGasLimit": false
    }
  ],
  "receipts": [
    {
      "status": "0x1",
      "cumulativeGasUsed": "0x0",
      "logs": [
        {
          "address": "0x51121bcae92e302f19d06c193c95e1f7b81a444b",
          "topics": [
            "0x8c5be1e5ebec7d5bd14f71427d1e84f3dd0314c0f7b2291e5b200ac8c7c3b925",
            "0x0000000000000000000000000000071763daa95626125986d95f7c7748a1bfe3",
            "0x0000000000000000000000002fb0da76902e13810460a80045c3fc5170776543"
          ],
          "data": "0x00000000000000000000000000000000000000000000000029a2241af62c0000",
          "blockHash": "0xca49ffd77fcb537c5c76711903e055fe76f8f6d3756a728f2c28f661d76ec1bc",
          "blockNumber": "0x9a79ee7",
          "transactionHash": "0x95c5d7afe2c7ba2db3ec394fdead3097692f009297a1db20da83871cffef7323",
          "transactionIndex": "0x9",
          "logIndex": "0xb",
          "removed": false
        }
      ],
      "logsBloom": "0x00000000000000000000000000080000000000000000000000000000000000000000000000000000000000000000000000000000000000000000000000200000200000000000000000000000008000000000000000002000000000000000000000000000000000000000000000000000000000000000000000000000000000000000800100000000000000000000000000000000000000000000000000000000020004000000000000000000000000000000000000000000000000000000000000000000000800000000000000000000000000000000000000004000000000000010000000000000000000000000000000000000000000000000000000000000",
      "type": "0x2",
      "transactionHash": "0x95c5d7afe2c7ba2db3ec394fdead3097692f009297a1db20da83871cffef7323",
      "transactionIndex": "0x9",
      "blockHash": "0xca49ffd77fcb537c5c76711903e055fe76f8f6d3756a728f2c28f661d76ec1bc",
      "blockNumber": "0x9a79ee7",
      "gasUsed": "0xb46c",
      "effectiveGasPrice": "0x7d4af792",
      "from": "0x0000071763daa95626125986d95f7c7748a1bfe3",
      "to": "0x51121bcae92e302f19d06c193c95e1f7b81a444b",
      "contractAddress": null
    },
    {
      "status": "0x1",
      "cumulativeGasUsed": "0x0",
      "logs": [
        {
          "address": "0x51121bcae92e302f19d06c193c95e1f7b81a444b",
          "topics": [
            "0xddf252ad1be2c89b69c2b068fc378daa952ba7f163c4a11628f55a4df523b3ef",
            "0x0000000000000000000000000000071763daa95626125986d95f7c7748a1bfe3",
            "0x0000000000000000000000002fb0da76902e13810460a80045c3fc5170776543"
          ],
          "data": "0x00000000000000000000000000000000000000000000000029a2241af62c0000",
          "blockHash": "0xbe241f6d6612f5069f8f03f4dc1f418518ca612cab97e2cf1952deb26fe8f914",
          "blockNumber": "0x9a79ee8",
          "transactionHash": "0x297070bc230b5480eca7da09b946281348b1ccccca5ebaf82657849b7df8bb70",
          "transactionIndex": "0x12",
          "logIndex": "0x15",
          "removed": false
        },
        {
          "address": "0x51121bcae92e302f19d06c193c95e1f7b81a444b",
          "topics": [
            "0xddf252ad1be2c89b69c2b068fc378daa952ba7f163c4a11628f55a4df523b3ef",
            "0x0000000000000000000000002fb0da76902e13810460a80045c3fc5170776543",
            "0x00000000000000000000000086a247ef0fc244565bcab93936e867407ac81580"
          ],
          "data": "0x00000000000000000000000000000000000000000000000029a2241af62c0000",
          "blockHash": "0xbe241f6d6612f5069f8f03f4dc1f418518ca612cab97e2cf1952deb26fe8f914",
          "blockNumber": "0x9a79ee8",
          "transactionHash": "0x297070bc230b5480eca7da09b946281348b1ccccca5ebaf82657849b7df8bb70",
          "transactionIndex": "0x12",
          "logIndex": "0x16",
          "removed": false
        },
        {
          "address": "0x86a247ef0fc244565bcab93936e867407ac81580",
          "topics": [
            "0xff04ccafc360e16b67d682d17bd9503c4c6b9a131f6be6325762dc9ffc7de624",
            "0x0000000000000000000000002fb0da76902e13810460a80045c3fc5170776543",
            "0x000000000000000000000000000000000000000000000000000000006c53b080"
          ],
          "data": "0x000000000000000000000000000000000000000000000000000000000000097900000000000000000000000000000000000000000000000029a2241af62c000000000000000000000000000000000000000000000000000000000000000000000000000000000000000000000000000000000000000000000000000068989ff6",
          "blockHash": "0xbe241f6d6612f5069f8f03f4dc1f418518ca612cab97e2cf1952deb26fe8f914",
          "blockNumber": "0x9a79ee8",
          "transactionHash": "0x297070bc230b5480eca7da09b946281348b1ccccca5ebaf82657849b7df8bb70",
          "transactionIndex": "0x12",
          "logIndex": "0x17",
          "removed": false
        },
        {
          "address": "0x86a247ef0fc244565bcab93936e867407ac81580",
          "topics": [
            "0x5e2aa66efd74cce82b21852e317e5490d9ecc9e6bb953ae24d90851258cc2f5c"
          ],
          "data": "0x0000000000000000000000000000000000000000029503df85491324622c73b60000000000000000000000000000000000000000029503dfaeeb373f585873b6",
          "blockHash": "0xbe241f6d6612f5069f8f03f4dc1f418518ca612cab97e2cf1952deb26fe8f914",
          "blockNumber": "0x9a79ee8",
          "transactionHash": "0x297070bc230b5480eca7da09b946281348b1ccccca5ebaf82657849b7df8bb70",
          "transactionIndex": "0x12",
          "logIndex": "0x18",
          "removed": false
        },
        {
          "address": "0xfeec14a2e30999a84ff4d5750ffb6d3aec681e79",
          "topics": [
            "0xddf252ad1be2c89b69c2b068fc378daa952ba7f163c4a11628f55a4df523b3ef",
            "0x0000000000000000000000000000000000000000000000000000000000000000",
            "0x0000000000000000000000000000071763daa95626125986d95f7c7748a1bfe3"
          ],
          "data": "0x00000000000000000000000000000000000000000000000029a2241af62c0000",
          "blockHash": "0xbe241f6d6612f5069f8f03f4dc1f418518ca612cab97e2cf1952deb26fe8f914",
          "blockNumber": "0x9a79ee8",
          "transactionHash": "0x297070bc230b5480eca7da09b946281348b1ccccca5ebaf82657849b7df8bb70",
          "transactionIndex": "0x12",
          "logIndex": "0x19",
          "removed": false
        },
        {
          "address": "0x2fb0da76902e13810460a80045c3fc5170776543",
          "topics": [
            "0x90890809c654f11d6e72a28fa60149770a0d11ec6c92319d6ceb2bb0a4ea1a15",
            "0x0000000000000000000000000000071763daa95626125986d95f7c7748a1bfe3"
          ],
          "data": "0x00000000000000000000000000000000000000000000000029a2241af62c000000000000000000000000000000000000000000000000000029a2241af62c0000",
          "blockHash": "0xbe241f6d6612f5069f8f03f4dc1f418518ca612cab97e2cf1952deb26fe8f914",
          "blockNumber": "0x9a79ee8",
          "transactionHash": "0x297070bc230b5480eca7da09b946281348b1ccccca5ebaf82657849b7df8bb70",
          "transactionIndex": "0x12",
          "logIndex": "0x1a",
          "removed": false
        }
      ],
      "logsBloom": "0x00000000000000000000010000080000000100400408100000000000000000000000000000000000000000000000010008000000000000001810000000000000200100000000000000000008008000000000000000002000000000000000000000000000020000000004800000000800000000000000000000000010000000000000800100000000000000000000000000000000000000000000000001000000000004000000000000000000000000000000000000000000000000000000002000008002000800000080000000000040000000000200000000004000000020000000080000000000000040000000000000000000400000000000000000002000",
      "type": "0x2",
      "transactionHash": "0x297070bc230b5480eca7da09b946281348b1ccccca5ebaf82657849b7df8bb70",
      "transactionIndex": "0x12",
      "blockHash": "0xbe241f6d6612f5069f8f03f4dc1f418518ca612cab97e2cf1952deb26fe8f914",
      "blockNumber": "0x9a79ee8",
      "gasUsed": "0x3f54b",
      "effectiveGasPrice": "0x7d4af792",
      "from": "0x0000071763daa95626125986d95f7c7748a1bfe3",
      "to": "0x2fb0da76902e13810460a80045c3fc5170776543",
      "contractAddress": null
    }
  ],
  "libraries": [],
  "pending": [],
  "returns": {},
  "timestamp": 1754832889,
  "chain": 1329,
  "commit": "3042979"
}