{
  "transactions": [
    {
      "hash": "0xff75e6ecbced4e1538b2c7356c7780ca02e1474c8364a48afa4542997ecebb38",
      "transactionType": "CALL",
      "contractName": null,
      "contractAddress": "0x51121bcae92e302f19d06c193c95e1f7b81a444b",
      "function": "approve(address,uint256)",
      "arguments": [
        "0xb45243027fdC5c52862b3f9d81b296420491b4CE",
        "1000000000000000000"
      ],
      "transaction": {
        "from": "0x0000071763daa95626125986d95f7c7748a1bfe3",
        "to": "0x51121bcae92e302f19d06c193c95e1f7b81a444b",
        "gas": "0xf945",
        "value": "0x0",
        "input": "0x095ea7b3000000000000000000000000b45243027fdc5c52862b3f9d81b296420491b4ce0000000000000000000000000000000000000000000000000de0b6b3a7640000",
        "nonce": "0x3",
        "chainId": "0x531"
      },
      "additionalContracts": [],
      "isFixedGasLimit": false
    },
    {
      "hash": "0x8e474e03104087f141c27cd3a2cf2bcd2a30e62e2bf5c5033664f0f45bd4098a",
      "transactionType": "CALL",
      "contractName": null,
      "contractAddress": "0xb45243027fdc5c52862b3f9d81b296420491b4ce",
      "function": "deposit(uint256)",
      "arguments": [
        "1000000000000000000"
      ],
      "transaction": {
        "from": "0x0000071763daa95626125986d95f7c7748a1bfe3",
        "to": "0xb45243027fdc5c52862b3f9d81b296420491b4ce",
        "gas": "0xb753b",
        "value": "0x0",
        "input": "0xb6b55f250000000000000000000000000000000000000000000000000de0b6b3a7640000",
        "nonce": "0x4",
        "chainId": "0x531"
      },
      "additionalContracts": [],
      "isFixedGasLimit": false
    }
  ],
  "receipts": [
    {
      "status": "0x1",
      "cumulativeGasUsed": "0x0",
      "logs": [
        {
          "address": "0x51121bcae92e302f19d06c193c95e1f7b81a444b",
          "topics": [
            "0x8c5be1e5ebec7d5bd14f71427d1e84f3dd0314c0f7b2291e5b200ac8c7c3b925",
            "0x0000000000000000000000000000071763daa95626125986d95f7c7748a1bfe3",
            "0x000000000000000000000000b45243027fdc5c52862b3f9d81b296420491b4ce"
          ],
          "data": "0x0000000000000000000000000000000000000000000000000de0b6b3a7640000",
          "blockHash": "0x33abe13a3501cf12b2ffbcc930385fe27fbafd3778a3488bd2273d1d07367966",
          "blockNumber": "0x9a78a08",
          "transactionHash": "0xff75e6ecbced4e1538b2c7356c7780ca02e1474c8364a48afa4542997ecebb38",
          "transactionIndex": "0xe",
          "logIndex": "0x14",
          "removed": false
        }
      ],
      "logsBloom": "0x00000000000000000000000000000000000000000000000000000000000000000000000000000000000000000000000000000000000000000000010000200000200000000000000000000000008000000000000000002000000000000000000000000000000000000000000000000000000000000000000000000000000000000000800100000000000000000000000000000000000000000000000000000000020004000000000000000000000000000000000000000000000000000000000000000000000000000000000000000000000000000000000000000000000000000010000000000000040000000000000000000100000000000000000000000000",
      "type": "0x2",
      "transactionHash": "0xff75e6ecbced4e1538b2c7356c7780ca02e1474c8364a48afa4542997ecebb38",
      "transactionIndex": "0xe",
      "blockHash": "0x33abe13a3501cf12b2ffbcc930385fe27fbafd3778a3488bd2273d1d07367966",
      "blockNumber": "0x9a78a08",
      "gasUsed": "0xb478",
      "effectiveGasPrice": "0x8da1aa79",
      "from": "0x0000071763daa95626125986d95f7c7748a1bfe3",
      "to": "0x51121bcae92e302f19d06c193c95e1f7b81a444b",
      "contractAddress": null
    },
    {
      "status": "0x1",
      "cumulativeGasUsed": "0x0",
      "logs": [
        {
          "address": "0x51121bcae92e302f19d06c193c95e1f7b81a444b",
          "topics": [
            "0xddf252ad1be2c89b69c2b068fc378daa952ba7f163c4a11628f55a4df523b3ef",
            "0x0000000000000000000000000000071763daa95626125986d95f7c7748a1bfe3",
            "0x000000000000000000000000b45243027fdc5c52862b3f9d81b296420491b4ce"
          ],
          "data": "0x0000000000000000000000000000000000000000000000000de0b6b3a7640000",
          "blockHash": "0xa798647faf97bc7aa1ebbcbbc63f9356bdcc7ad43a708ccde720f73c18dd343f",
          "blockNumber": "0x9a78a09",
          "transactionHash": "0x8e474e03104087f141c27cd3a2cf2bcd2a30e62e2bf5c5033664f0f45bd4098a",
          "transactionIndex": "0x19",
          "logIndex": "0x18",
          "removed": false
        },
        {
          "address": "0x86a247ef0fc244565bcab93936e867407ac81580",
          "topics": [
            "0xddf252ad1be2c89b69c2b068fc378daa952ba7f163c4a11628f55a4df523b3ef",
            "0x0000000000000000000000000000000000000000000000000000000000000000",
            "0x000000000000000000000000b45243027fdc5c52862b3f9d81b296420491b4ce",
            "0x0000000000000000000000000000000000000000000000000000000000000978"
          ],
          "data": "0x",
          "blockHash": "0xa798647faf97bc7aa1ebbcbbc63f9356bdcc7ad43a708ccde720f73c18dd343f",
          "blockNumber": "0x9a78a09",
          "transactionHash": "0x8e474e03104087f141c27cd3a2cf2bcd2a30e62e2bf5c5033664f0f45bd4098a",
          "transactionIndex": "0x19",
          "logIndex": "0x19",
          "removed": false
        },
        {
          "address": "0x51121bcae92e302f19d06c193c95e1f7b81a444b",
          "topics": [
            "0xddf252ad1be2c89b69c2b068fc378daa952ba7f163c4a11628f55a4df523b3ef",
            "0x000000000000000000000000b45243027fdc5c52862b3f9d81b296420491b4ce",
            "0x00000000000000000000000086a247ef0fc244565bcab93936e867407ac81580"
          ],
          "data": "0x0000000000000000000000000000000000000000000000000de0b6b3a7640000",
          "blockHash": "0xa798647faf97bc7aa1ebbcbbc63f9356bdcc7ad43a708ccde720f73c18dd343f",
          "blockNumber": "0x9a78a09",
          "transactionHash": "0x8e474e03104087f141c27cd3a2cf2bcd2a30e62e2bf5c5033664f0f45bd4098a",
          "transactionIndex": "0x19",
          "logIndex": "0x1a",
          "removed": false
        },
        {
          "address": "0x86a247ef0fc244565bcab93936e867407ac81580",
          "topics": [
            "0xff04ccafc360e16b67d682d17bd9503c4c6b9a131f6be6325762dc9ffc7de624",
            "0x000000000000000000000000b45243027fdc5c52862b3f9d81b296420491b4ce",
            "0x000000000000000000000000000000000000000000000000000000006c53b080"
          ],
          "data": "0x00000000000000000000000000000000000000000000000000000000000009780000000000000000000000000000000000000000000000000de0b6b3a7640000000000000000000000000000000000000000000000000000000000000000000100000000000000000000000000000000000000000000000000000000689895be",
          "blockHash": "0xa798647faf97bc7aa1ebbcbbc63f9356bdcc7ad43a708ccde720f73c18dd343f",
          "blockNumber": "0x9a78a09",
          "transactionHash": "0x8e474e03104087f141c27cd3a2cf2bcd2a30e62e2bf5c5033664f0f45bd4098a",
          "transactionIndex": "0x19",
          "logIndex": "0x1b",
          "removed": false
        },
        {
          "address": "0x86a247ef0fc244565bcab93936e867407ac81580",
          "topics": [
            "0x5e2aa66efd74cce82b21852e317e5490d9ecc9e6bb953ae24d90851258cc2f5c"
          ],
          "data": "0x000000000000000000000000000000000000000002950511a0b3626520e5f2d0000000000000000000000000000000000000000002950511ae941918c849f2d0",
          "blockHash": "0xa798647faf97bc7aa1ebbcbbc63f9356bdcc7ad43a708ccde720f73c18dd343f",
          "blockNumber": "0x9a78a09",
          "transactionHash": "0x8e474e03104087f141c27cd3a2cf2bcd2a30e62e2bf5c5033664f0f45bd4098a",
          "transactionIndex": "0x19",
          "logIndex": "0x1c",
          "removed": false
        },
        {
          "address": "0xfeec14a2e30999a84ff4d5750ffb6d3aec681e79",
          "topics": [
            "0xddf252ad1be2c89b69c2b068fc378daa952ba7f163c4a11628f55a4df523b3ef",
            "0x0000000000000000000000000000000000000000000000000000000000000000",
            "0x0000000000000000000000000000071763daa95626125986d95f7c7748a1bfe3"
          ],
          "data": "0x0000000000000000000000000000000000000000000000000de0b6b3a7640000",
          "blockHash": "0xa798647faf97bc7aa1ebbcbbc63f9356bdcc7ad43a708ccde720f73c18dd343f",
          "blockNumber": "0x9a78a09",
          "transactionHash": "0x8e474e03104087f141c27cd3a2cf2bcd2a30e62e2bf5c5033664f0f45bd4098a",
          "transactionIndex": "0x19",
          "logIndex": "0x1d",
          "removed": false
        },
        {
          "address": "0xb45243027fdc5c52862b3f9d81b296420491b4ce",
          "topics": [
            "0x90890809c654f11d6e72a28fa60149770a0d11ec6c92319d6ceb2bb0a4ea1a15",
            "0x0000000000000000000000000000071763daa95626125986d95f7c7748a1bfe3"
          ],
          "data": "0x0000000000000000000000000000000000000000000000000de0b6b3a76400000000000000000000000000000000000000000000000000000de0b6b3a7640000",
          "blockHash": "0xa798647faf97bc7aa1ebbcbbc63f9356bdcc7ad43a708ccde720f73c18dd343f",
          "blockNumber": "0x9a78a09",
          "transactionHash": "0x8e474e03104087f141c27cd3a2cf2bcd2a30e62e2bf5c5033664f0f45bd4098a",
          "transactionIndex": "0x19",
          "logIndex": "0x1e",
          "removed": false
        }
      ],
      "logsBloom": "0x00000000000000000000010000000000000000400408000000000000000000000000000000000000000000000000010008001000000000001810010000000000200100000000000000000008008004000000000000002000000000000000080800000000020000000004000000000800000000000000000000000010000000000000800100002000000000000000000000000000000000000000000001000000000004000000000000000004000000000000000000000000000000000000002000008002000000000080000000000040000000000200000000000000000020000000080000000000040040000000000000000100400000000000000000002000",
      "type": "0x2",
      "transactionHash": "0x8e474e03104087f141c27cd3a2cf2bcd2a30e62e2bf5c5033664f0f45bd4098a",
      "transactionIndex": "0x19",
      "blockHash": "0xa798647faf97bc7aa1ebbcbbc63f9356bdcc7ad43a708ccde720f73c18dd343f",
      "blockNumber": "0x9a78a09",
      "gasUsed": "0x7d5a1",
      "effectiveGasPrice": "0x8da1aa79",
      "from": "0x0000071763daa95626125986d95f7c7748a1bfe3",
      "to": "0xb45243027fdc5c52862b3f9d81b296420491b4ce",
      "contractAddress": null
    }
  ],
  "libraries": [],
  "pending": [],
  "returns": {},
  "timestamp": 1754830273,
  "chain": 1329,
  "commit": "d8ec988"
}