{
  "transactions": [
    {
      "hash": "0xcfc75658f919988a0002df418ebf2c2c9e30433de86e42f27b621279132dfbe7",
      "transactionType": "CALL",
      "contractName": null,
      "contractAddress": "0xfeec14a2e30999a84ff4d5750ffb6d3aec681e79",
      "function": "approve(address,uint256)",
      "arguments": [
        "0x2fB0DA76902E13810460A80045C3FC5170776543",
        "1000000000000000000"
      ],
      "transaction": {
        "from": "0x0000071763daa95626125986d95f7c7748a1bfe3",
        "to": "0xfeec14a2e30999a84ff4d5750ffb6d3aec681e79",
        "gas": "0xf843",
        "value": "0x0",
        "input": "0x095ea7b30000000000000000000000002fb0da76902e13810460a80045c3fc51707765430000000000000000000000000000000000000000000000000de0b6b3a7640000",
        "nonce": "0x12",
        "chainId": "0x531"
      },
      "additionalContracts": [],
      "isFixedGasLimit": false
    },
    {
      "hash": "0x31f573130a45509e5e98b6dd8ac7bca9a39a943a4647f66acd1d55410ca39f68",
      "transactionType": "CALL",
      "contractName": null,
      "contractAddress": "0x2fb0da76902e13810460a80045c3fc5170776543",
      "function": "withdraw(uint256)",
      "arguments": [
        "1000000000000000000"
      ],
      "transaction": {
        "from": "0x0000071763daa95626125986d95f7c7748a1bfe3",
        "to": "0x2fb0da76902e13810460a80045c3fc5170776543",
        "gas": "0x169e04",
        "value": "0x0",
        "input": "0x2e1a7d4d0000000000000000000000000000000000000000000000000de0b6b3a7640000",
        "nonce": "0x13",
        "chainId": "0x531"
      },
      "additionalContracts": [],
      "isFixedGasLimit": false
    }
  ],
  "receipts": [
    {
      "status": "0x1",
      "cumulativeGasUsed": "0x0",
      "logs": [
        {
          "address": "0xfeec14a2e30999a84ff4d5750ffb6d3aec681e79",
          "topics": [
            "0x8c5be1e5ebec7d5bd14f71427d1e84f3dd0314c0f7b2291e5b200ac8c7c3b925",
            "0x0000000000000000000000000000071763daa95626125986d95f7c7748a1bfe3",
            "0x0000000000000000000000002fb0da76902e13810460a80045c3fc5170776543"
          ],
          "data": "0x0000000000000000000000000000000000000000000000000de0b6b3a7640000",
          "blockHash": "0x4300fbda6eb12c5fa2cb2464312e9aca1d819ae515e48277c1ef8913033c6730",
          "blockNumber": "0x9a79cba",
          "transactionHash": "0xcfc75658f919988a0002df418ebf2c2c9e30433de86e42f27b621279132dfbe7",
          "transactionIndex": "0xc",
          "logIndex": "0x11",
          "removed": false
        }
      ],
      "logsBloom": "0x00000000000000000000000000080000000000000000000000000000000000000000000000000000000000000000000000000000000000001000000000200000000100000000000000000000008000000000000000002000000000000000000000000000000000000000000000000000000000000000000000000000000000000000000100000000000000000000000000000000000000000000000000000000020000000000000000000000000000000000000000000000000000000000000000000000000800000000000000000000000000000000000000004000000000000010000000000000000000000000000000000000000000000000000000002000",
      "type": "0x2",
      "transactionHash": "0xcfc75658f919988a0002df418ebf2c2c9e30433de86e42f27b621279132dfbe7",
      "transactionIndex": "0xc",
      "blockHash": "0x4300fbda6eb12c5fa2cb2464312e9aca1d819ae515e48277c1ef8913033c6730",
      "blockNumber": "0x9a79cba",
      "gasUsed": "0xb3be",
      "effectiveGasPrice": "0x98166a72",
      "from": "0x0000071763daa95626125986d95f7c7748a1bfe3",
      "to": "0xfeec14a2e30999a84ff4d5750ffb6d3aec681e79",
      "contractAddress": null
    },
    {
      "status": "0x1",
      "cumulativeGasUsed": "0x0",
      "logs": [
        {
          "address": "0xfeec14a2e30999a84ff4d5750ffb6d3aec681e79",
          "topics": [
            "0xddf252ad1be2c89b69c2b068fc378daa952ba7f163c4a11628f55a4df523b3ef",
            "0x0000000000000000000000000000071763daa95626125986d95f7c7748a1bfe3",
            "0x0000000000000000000000000000000000000000000000000000000000000000"
          ],
          "data": "0x0000000000000000000000000000000000000000000000000de0b6b3a7640000",
          "blockHash": "0x1ea92b3430712fdbcb155f35eadeb9acbb2f1890e13d9f26bd459b816642a1f2",
          "blockNumber": "0x9a79cbb",
          "transactionHash": "0x31f573130a45509e5e98b6dd8ac7bca9a39a943a4647f66acd1d55410ca39f68",
          "transactionIndex": "0xc",
          "logIndex": "0xc",
          "removed": false
        },
        {
          "address": "0x86a247ef0fc244565bcab93936e867407ac81580",
          "topics": [
            "0x8c5be1e5ebec7d5bd14f71427d1e84f3dd0314c0f7b2291e5b200ac8c7c3b925",
            "0x0000000000000000000000002fb0da76902e13810460a80045c3fc5170776543",
            "0x0000000000000000000000000000000000000000000000000000000000000000",
            "0x0000000000000000000000000000000000000000000000000000000000000978"
          ],
          "data": "0x",
          "blockHash": "0x1ea92b3430712fdbcb155f35eadeb9acbb2f1890e13d9f26bd459b816642a1f2",
          "blockNumber": "0x9a79cbb",
          "transactionHash": "0x31f573130a45509e5e98b6dd8ac7bca9a39a943a4647f66acd1d55410ca39f68",
          "transactionIndex": "0xc",
          "logIndex": "0xd",
          "removed": false
        },
        {
          "address": "0x86a247ef0fc244565bcab93936e867407ac81580",
          "topics": [
            "0xddf252ad1be2c89b69c2b068fc378daa952ba7f163c4a11628f55a4df523b3ef",
            "0x0000000000000000000000002fb0da76902e13810460a80045c3fc5170776543",
            "0x0000000000000000000000000000000000000000000000000000000000000000",
            "0x0000000000000000000000000000000000000000000000000000000000000978"
          ],
          "data": "0x",
          "blockHash": "0x1ea92b3430712fdbcb155f35eadeb9acbb2f1890e13d9f26bd459b816642a1f2",
          "blockNumber": "0x9a79cbb",
          "transactionHash": "0x31f573130a45509e5e98b6dd8ac7bca9a39a943a4647f66acd1d55410ca39f68",
          "transactionIndex": "0xc",
          "logIndex": "0xe",
          "removed": false
        },
        {
          "address": "0x86a247ef0fc244565bcab93936e867407ac81580",
          "topics": [
            "0xddf252ad1be2c89b69c2b068fc378daa952ba7f163c4a11628f55a4df523b3ef",
            "0x0000000000000000000000000000000000000000000000000000000000000000",
            "0x0000000000000000000000002fb0da76902e13810460a80045c3fc5170776543",
            "0x0000000000000000000000000000000000000000000000000000000000000979"
          ],
          "data": "0x",
          "blockHash": "0x1ea92b3430712fdbcb155f35eadeb9acbb2f1890e13d9f26bd459b816642a1f2",
          "blockNumber": "0x9a79cbb",
          "transactionHash": "0x31f573130a45509e5e98b6dd8ac7bca9a39a943a4647f66acd1d55410ca39f68",
          "transactionIndex": "0xc",
          "logIndex": "0xf",
          "removed": false
        },
        {
          "address": "0x86a247ef0fc244565bcab93936e867407ac81580",
          "topics": [
            "0xff04ccafc360e16b67d682d17bd9503c4c6b9a131f6be6325762dc9ffc7de624",
            "0x0000000000000000000000002fb0da76902e13810460a80045c3fc5170776543",
            "0x000000000000000000000000000000000000000000000000000000006c53b080"
          ],
          "data": "0x00000000000000000000000000000000000000000000000000000000000009790000000000000000000000000000000000000000000000004563918244f4000000000000000000000000000000000000000000000000000000000000000000050000000000000000000000000000000000000000000000000000000068989ee3",
          "blockHash": "0x1ea92b3430712fdbcb155f35eadeb9acbb2f1890e13d9f26bd459b816642a1f2",
          "blockNumber": "0x9a79cbb",
          "transactionHash": "0x31f573130a45509e5e98b6dd8ac7bca9a39a943a4647f66acd1d55410ca39f68",
          "transactionIndex": "0xc",
          "logIndex": "0x10",
          "removed": false
        },
        {
          "address": "0x86a247ef0fc244565bcab93936e867407ac81580",
          "topics": [
            "0x5e2aa66efd74cce82b21852e317e5490d9ecc9e6bb953ae24d90851258cc2f5c"
          ],
          "data": "0x0000000000000000000000000000000000000000029503df3204caee75d473b60000000000000000000000000000000000000000029503df77685c70bac873b6",
          "blockHash": "0x1ea92b3430712fdbcb155f35eadeb9acbb2f1890e13d9f26bd459b816642a1f2",
          "blockNumber": "0x9a79cbb",
          "transactionHash": "0x31f573130a45509e5e98b6dd8ac7bca9a39a943a4647f66acd1d55410ca39f68",
          "transactionIndex": "0xc",
          "logIndex": "0x11",
          "removed": false
        },
        {
          "address": "0x86a247ef0fc244565bcab93936e867407ac81580",
          "topics": [
            "0xddf252ad1be2c89b69c2b068fc378daa952ba7f163c4a11628f55a4df523b3ef",
            "0x0000000000000000000000000000000000000000000000000000000000000000",
            "0x0000000000000000000000002fb0da76902e13810460a80045c3fc5170776543",
            "0x000000000000000000000000000000000000000000000000000000000000097a"
          ],
          "data": "0x",
          "blockHash": "0x1ea92b3430712fdbcb155f35eadeb9acbb2f1890e13d9f26bd459b816642a1f2",
          "blockNumber": "0x9a79cbb",
          "transactionHash": "0x31f573130a45509e5e98b6dd8ac7bca9a39a943a4647f66acd1d55410ca39f68",
          "transactionIndex": "0xc",
          "logIndex": "0x12",
          "removed": false
        },
        {
          "address": "0x86a247ef0fc244565bcab93936e867407ac81580",
          "topics": [
            "0xff04ccafc360e16b67d682d17bd9503c4c6b9a131f6be6325762dc9ffc7de624",
            "0x0000000000000000000000002fb0da76902e13810460a80045c3fc5170776543",
            "0x000000000000000000000000000000000000000000000000000000006c53b080"
          ],
          "data": "0x000000000000000000000000000000000000000000000000000000000000097a0000000000000000000000000000000000000000000000000de0b6b3a764000000000000000000000000000000000000000000000000000000000000000000050000000000000000000000000000000000000000000000000000000068989ee3",
          "blockHash": "0x1ea92b3430712fdbcb155f35eadeb9acbb2f1890e13d9f26bd459b816642a1f2",
          "blockNumber": "0x9a79cbb",
          "transactionHash": "0x31f573130a45509e5e98b6dd8ac7bca9a39a943a4647f66acd1d55410ca39f68",
          "transactionIndex": "0xc",
          "logIndex": "0x13",
          "removed": false
        },
        {
          "address": "0x86a247ef0fc244565bcab93936e867407ac81580",
          "topics": [
            "0x5e2aa66efd74cce82b21852e317e5490d9ecc9e6bb953ae24d90851258cc2f5c"
          ],
          "data": "0x0000000000000000000000000000000000000000029503df77685c70bac873b60000000000000000000000000000000000000000029503df85491324622c73b6",
          "blockHash": "0x1ea92b3430712fdbcb155f35eadeb9acbb2f1890e13d9f26bd459b816642a1f2",
          "blockNumber": "0x9a79cbb",
          "transactionHash": "0x31f573130a45509e5e98b6dd8ac7bca9a39a943a4647f66acd1d55410ca39f68",
          "transactionIndex": "0xc",
          "logIndex": "0x14",
          "removed": false
        },
        {
          "address": "0x2fb0da76902e13810460a80045c3fc5170776543",
          "topics": [
            "0x17b80abd84b5ac78c20d84a4b5ad262b6190fa7315e5d4d5d7ae8113d241e7a4",
            "0x0000000000000000000000000000000000000000000000000000000000000978"
          ],
          "data": "0x000000000000000000000000000000000000000000000000000000000000002000000000000000000000000000000000000000000000000000000000000000020000000000000000000000000000000000000000000000000000000000000979000000000000000000000000000000000000000000000000000000000000097a",
          "blockHash": "0x1ea92b3430712fdbcb155f35eadeb9acbb2f1890e13d9f26bd459b816642a1f2",
          "blockNumber": "0x9a79cbb",
          "transactionHash": "0x31f573130a45509e5e98b6dd8ac7bca9a39a943a4647f66acd1d55410ca39f68",
          "transactionIndex": "0xc",
          "logIndex": "0x15",
          "removed": false
        },
        {
          "address": "0x86a247ef0fc244565bcab93936e867407ac81580",
          "topics": [
            "0xddf252ad1be2c89b69c2b068fc378daa952ba7f163c4a11628f55a4df523b3ef",
            "0x0000000000000000000000002fb0da76902e13810460a80045c3fc5170776543",
            "0x0000000000000000000000000000071763daa95626125986d95f7c7748a1bfe3",
            "0x000000000000000000000000000000000000000000000000000000000000097a"
          ],
          "data": "0x",
          "blockHash": "0x1ea92b3430712fdbcb155f35eadeb9acbb2f1890e13d9f26bd459b816642a1f2",
          "blockNumber": "0x9a79cbb",
          "transactionHash": "0x31f573130a45509e5e98b6dd8ac7bca9a39a943a4647f66acd1d55410ca39f68",
          "transactionIndex": "0xc",
          "logIndex": "0x16",
          "removed": false
        },
        {
          "address": "0x2fb0da76902e13810460a80045c3fc5170776543",
          "topics": [
            "0x7e337f1bf268ab882ed2ad2f4cbd9acf4f1aeb7757f9cb032ad3206f502bb5b9",
            "0x0000000000000000000000000000071763daa95626125986d95f7c7748a1bfe3",
            "0x000000000000000000000000000000000000000000000000000000000000097a"
          ],
          "data": "0x0000000000000000000000000000000000000000000000000de0b6b3a76400000000000000000000000000000000000000000000000000000de0b6b3a7640000",
          "blockHash": "0x1ea92b3430712fdbcb155f35eadeb9acbb2f1890e13d9f26bd459b816642a1f2",
          "blockNumber": "0x9a79cbb",
          "transactionHash": "0x31f573130a45509e5e98b6dd8ac7bca9a39a943a4647f66acd1d55410ca39f68",
          "transactionIndex": "0xc",
          "logIndex": "0x17",
          "removed": false
        }
      ],
      "logsBloom": "0x00000000000000000000010200080000000100000008100000000000000000000000001000000000000000000000010000000000000000001810004000200000000100000000000000000008008000000000000000002000000008000000080800080000020000000004800000000800000000000000000000100010000000000000000100000000000000200000000000000000000000000000000001000000020000000000000000000004000000000000000000000000000000000200022000008002000800000080000000000040000000000000000000004000000028000010080000080000000000000000000000000000020000000000000000002000",
      "type": "0x2",
      "transactionHash": "0x31f573130a45509e5e98b6dd8ac7bca9a39a943a4647f66acd1d55410ca39f68",
      "transactionIndex": "0xc",
      "blockHash": "0x1ea92b3430712fdbcb155f35eadeb9acbb2f1890e13d9f26bd459b816642a1f2",
      "blockNumber": "0x9a79cbb",
      "gasUsed": "0x105fdf",
      "effectiveGasPrice": "0x98166a72",
      "from": "0x0000071763daa95626125986d95f7c7748a1bfe3",
      "to": "0x2fb0da76902e13810460a80045c3fc5170776543",
      "contractAddress": null
    }
  ],
  "libraries": [],
  "pending": [],
  "returns": {},
  "timestamp": 1754832613,
  "chain": 1329,
  "commit": "507a526"
}