{
  "transactions": [
    {
      "hash": "0xa9df37937d73207f916be0543a92426b60d98a21d0598f762e6d92679862137a",
      "transactionType": "CALL",
      "contractName": null,
      "contractAddress": "0x6d5fe504b236738d160b56a493f8c369fd5eb433",
      "function": "migrateToNewVault(address)",
      "arguments": [
        "0x2fB0DA76902E13810460A80045C3FC5170776543"
      ],
      "transaction": {
        "from": "0x0000071763daa95626125986d95f7c7748a1bfe3",
        "to": "0x6d5fe504b236738d160b56a493f8c369fd5eb433",
        "gas": "0x5f57b",
        "value": "0x0",
        "input": "0xcec1e6ba0000000000000000000000002fb0da76902e13810460a80045c3fc5170776543",
        "nonce": "0x10",
        "chainId": "0x531"
      },
      "additionalContracts": [],
      "isFixedGasLimit": false
    },
    {
      "hash": "0xffc84b358611e8be942bad352e197d662dbeb2ecc62da82356707f620cd02394",
      "transactionType": "CALL",
      "contractName": null,
      "contractAddress": "0x2fb0da76902e13810460a80045c3fc5170776543",
      "function": "receiveFromOldVault(uint256)",
      "arguments": [
        "2424"
      ],
      "transaction": {
        "from": "0x0000071763daa95626125986d95f7c7748a1bfe3",
        "to": "0x2fb0da76902e13810460a80045c3fc5170776543",
        "gas": "0x11860",
        "value": "0x0",
        "input": "0xf130ce9e0000000000000000000000000000000000000000000000000000000000000978",
        "nonce": "0x11",
        "chainId": "0x531"
      },
      "additionalContracts": [],
      "isFixedGasLimit": false
    }
  ],
  "receipts": [
    {
      "status": "0x1",
      "cumulativeGasUsed": "0x0",
      "logs": [
        {
          "address": "0x02330bd932d89c43d5834c8920314d4d74cd2184",
          "topics": [
            "0x0c875c8d391179c5cf7ad8303d268efd50b8beb78b671f85cd54bfb91eb8ef40",
            "0x0000000000000000000000000000000000000000000000000000000000000978"
          ],
          "data": "0x00000000000000000000000000000000000000000000000052a25bc651b383a6",
          "blockHash": "0x632d29cca7a5817087d1943c3253cda451d233e799458e11c2b59facc5cb2ec6",
          "blockNumber": "0x9a79ba2",
          "transactionHash": "0xa9df37937d73207f916be0543a92426b60d98a21d0598f762e6d92679862137a",
          "transactionIndex": "0x7",
          "logIndex": "0xc",
          "removed": false
        },
        {
          "address": "0xa5bf73f4eac1045a765b742f6040abd53f3f9aec",
          "topics": [
            "0x0c875c8d391179c5cf7ad8303d268efd50b8beb78b671f85cd54bfb91eb8ef40",
            "0x0000000000000000000000000000000000000000000000000000000000000978"
          ],
          "data": "0x00000000000000000000000000000000000000000000000052a25bc651b383a6",
          "blockHash": "0x632d29cca7a5817087d1943c3253cda451d233e799458e11c2b59facc5cb2ec6",
          "blockNumber": "0x9a79ba2",
          "transactionHash": "0xa9df37937d73207f916be0543a92426b60d98a21d0598f762e6d92679862137a",
          "transactionIndex": "0x7",
          "logIndex": "0xd",
          "removed": false
        },
        {
          "address": "0x36068f15f257896e03fb7edba3d18898d0ade809",
          "topics": [
            "0xa9f3ca5f8a9e1580edb2741e0ba560084ec72e0067ba3423f9e9327a176882db"
          ],
          "data": "0x000000000000000000000000000000000000000000000000000000000000097800000000000000000000000000000000000000000000000052a25bc651b383a6",
          "blockHash": "0x632d29cca7a5817087d1943c3253cda451d233e799458e11c2b59facc5cb2ec6",
          "blockNumber": "0x9a79ba2",
          "transactionHash": "0xa9df37937d73207f916be0543a92426b60d98a21d0598f762e6d92679862137a",
          "transactionIndex": "0x7",
          "logIndex": "0xe",
          "removed": false
        },
        {
          "address": "0x6d5fe504b236738d160b56a493f8c369fd5eb433",
          "topics": [
            "0x8be98ba0c457a4e5c820d7f0dc4371bcb8a3c23823129ba922f3482465159df3",
            "0x0000000000000000000000000000000000000000000000000000000000000978"
          ],
          "data": "0x",
          "blockHash": "0x632d29cca7a5817087d1943c3253cda451d233e799458e11c2b59facc5cb2ec6",
          "blockNumber": "0x9a79ba2",
          "transactionHash": "0xa9df37937d73207f916be0543a92426b60d98a21d0598f762e6d92679862137a",
          "transactionIndex": "0x7",
          "logIndex": "0xf",
          "removed": false
        },
        {
          "address": "0x86a247ef0fc244565bcab93936e867407ac81580",
          "topics": [
            "0xddf252ad1be2c89b69c2b068fc378daa952ba7f163c4a11628f55a4df523b3ef",
            "0x0000000000000000000000006d5fe504b236738d160b56a493f8c369fd5eb433",
            "0x0000000000000000000000002fb0da76902e13810460a80045c3fc5170776543",
            "0x0000000000000000000000000000000000000000000000000000000000000978"
          ],
          "data": "0x",
          "blockHash": "0x632d29cca7a5817087d1943c3253cda451d233e799458e11c2b59facc5cb2ec6",
          "blockNumber": "0x9a79ba2",
          "transactionHash": "0xa9df37937d73207f916be0543a92426b60d98a21d0598f762e6d92679862137a",
          "transactionIndex": "0x7",
          "logIndex": "0x10",
          "removed": false
        },
        {
          "address": "0x6d5fe504b236738d160b56a493f8c369fd5eb433",
          "topics": [
            "0x92e4cea44e9707d0d3f0d5e38d2b0e983dced34d072c945a2fa65182bf693d50",
            "0x0000000000000000000000002fb0da76902e13810460a80045c3fc5170776543"
          ],
          "data": "0x000000000000000000000000000000000000000000000000000000000000002000000000000000000000000000000000000000000000000000000000000000010000000000000000000000000000000000000000000000000000000000000978",
          "blockHash": "0x632d29cca7a5817087d1943c3253cda451d233e799458e11c2b59facc5cb2ec6",
          "blockNumber": "0x9a79ba2",
          "transactionHash": "0xa9df37937d73207f916be0543a92426b60d98a21d0598f762e6d92679862137a",
          "transactionIndex": "0x7",
          "logIndex": "0x11",
          "removed": false
        }
      ],
      "logsBloom": "0x00000000000001000000000400080000000008000000000000200000000002000000001000000000000000000000000000000000400000000000000000000000000000000000000000000008000000000004000000000004000000000000080800000000040000000000000000000000000000000000000000000010000000000000400002000000000000000000000000000020000020000000000001000000000000000000000000000004000000000040000000000000000000000000800000008002000800000000000000100840000000001000100000004000000000020000080000000000000000000000000000000000100008000000000001000000",
      "type": "0x2",
      "transactionHash": "0xa9df37937d73207f916be0543a92426b60d98a21d0598f762e6d92679862137a",
      "transactionIndex": "0x7",
      "blockHash": "0x632d29cca7a5817087d1943c3253cda451d233e799458e11c2b59facc5cb2ec6",
      "blockNumber": "0x9a79ba2",
      "gasUsed": "0x4506d",
      "effectiveGasPrice": "0xbebeec94",
      "from": "0x0000071763daa95626125986d95f7c7748a1bfe3",
      "to": "0x6d5fe504b236738d160b56a493f8c369fd5eb433",
      "contractAddress": null
    },
    {
      "status": "0x1",
      "cumulativeGasUsed": "0x0",
      "logs": [],
      "logsBloom": "0x00000000000000000000000000000000000000000000000000000000000000000000000000000000000000000000000000000000000000000000000000000000000000000000000000000000000000000000000000000000000000000000000000000000000000000000000000000000000000000000000000000000000000000000000000000000000000000000000000000000000000000000000000000000000000000000000000000000000000000000000000000000000000000000000000000000000000000000000000000000000000000000000000000000000000000000000000000000000000000000000000000000000000000000000000000000",
      "type": "0x2",
      "transactionHash": "0xffc84b358611e8be942bad352e197d662dbeb2ecc62da82356707f620cd02394",
      "transactionIndex": "0x9",
      "blockHash": "0xfd21091a2e997d9415398effb31d6cb615be6595040067063d8ea94a19d946d5",
      "blockNumber": "0x9a79ba3",
      "gasUsed": "0xcafe",
      "effectiveGasPrice": "0xbebeec94",
      "from": "0x0000071763daa95626125986d95f7c7748a1bfe3",
      "to": "0x2fb0da76902e13810460a80045c3fc5170776543",
      "contractAddress": null
    }
  ],
  "libraries": [],
  "pending": [],
  "returns": {},
  "timestamp": 1754832479,
  "chain": 1329,
  "commit": "507a526"
}