{
  "transactions": [
    {
      "hash": "0x8e321475f8456675bb15f5f180caeb3816a09543dc530af95ddac40f260d2082",
      "transactionType": "CALL",
      "contractName": null,
      "contractAddress": "0xb45243027fdc5c52862b3f9d81b296420491b4ce",
      "function": "migrateToNewVault(address)",
      "arguments": [
        "0x6d5FE504b236738D160B56A493F8c369fd5eB433"
      ],
      "transaction": {
        "from": "0x0000071763daa95626125986d95f7c7748a1bfe3",
        "to": "0xb45243027fdc5c52862b3f9d81b296420491b4ce",
        "gas": "0x49e72",
        "value": "0x0",
        "input": "0xcec1e6ba0000000000000000000000006d5fe504b236738d160b56a493f8c369fd5eb433",
        "nonce": "0x8",
        "chainId": "0x531"
      },
      "additionalContracts": [],
      "isFixedGasLimit": false
    },
    {
      "hash": "0x07f03ae40f1ccb94a9a90a3e2db46e3c83ed88414f873eb5af38d314113e6126",
      "transactionType": "CALL",
      "contractName": null,
      "contractAddress": "0x6d5fe504b236738d160b56a493f8c369fd5eb433",
      "function": "receiveFromOldVault(uint256)",
      "arguments": [
        "2424"
      ],
      "transaction": {
        "from": "0x0000071763daa95626125986d95f7c7748a1bfe3",
        "to": "0x6d5fe504b236738d160b56a493f8c369fd5eb433",
        "gas": "0x11860",
        "value": "0x0",
        "input": "0xf130ce9e0000000000000000000000000000000000000000000000000000000000000978",
        "nonce": "0x9",
        "chainId": "0x531"
      },
      "additionalContracts": [],
      "isFixedGasLimit": false
    }
  ],
  "receipts": [
    {
      "status": "0x1",
      "cumulativeGasUsed": "0x0",
      "logs": [
        {
          "address": "0x86a247ef0fc244565bcab93936e867407ac81580",
          "topics": [
            "0xddf252ad1be2c89b69c2b068fc378daa952ba7f163c4a11628f55a4df523b3ef",
            "0x000000000000000000000000b45243027fdc5c52862b3f9d81b296420491b4ce",
            "0x0000000000000000000000006d5fe504b236738d160b56a493f8c369fd5eb433",
            "0x0000000000000000000000000000000000000000000000000000000000000978"
          ],
          "data": "0x",
          "blockHash": "0x9e90b88f94fc5ace650ded2ff83a1238035c4c77245675cb2bb90afa05a62d3a",
          "blockNumber": "0x9a78d2f",
          "transactionHash": "0x8e321475f8456675bb15f5f180caeb3816a09543dc530af95ddac40f260d2082",
          "transactionIndex": "0x3",
          "logIndex": "0x2",
          "removed": false
        },
        {
          "address": "0xb45243027fdc5c52862b3f9d81b296420491b4ce",
          "topics": [
            "0x92e4cea44e9707d0d3f0d5e38d2b0e983dced34d072c945a2fa65182bf693d50",
            "0x0000000000000000000000006d5fe504b236738d160b56a493f8c369fd5eb433"
          ],
          "data": "0x000000000000000000000000000000000000000000000000000000000000002000000000000000000000000000000000000000000000000000000000000000010000000000000000000000000000000000000000000000000000000000000978",
          "blockHash": "0x9e90b88f94fc5ace650ded2ff83a1238035c4c77245675cb2bb90afa05a62d3a",
          "blockNumber": "0x9a78d2f",
          "transactionHash": "0x8e321475f8456675bb15f5f180caeb3816a09543dc530af95ddac40f260d2082",
          "transactionIndex": "0x3",
          "logIndex": "0x3",
          "removed": false
        }
      ],
      "logsBloom": "0x00000000000000000000000000000000000000000000000000000000000002000000000000000000000000000000000000001000400000000000010000000000000000000000000000000008000004000000000000000000000000000000080800000000000000000000000000000000000000000000000000000010000000000000000000002000000000000000000000000000000000000000000001000000000000000000000000000004000000000040000000000000000000000000000000008002000000000000000000000800000000000000000000000000000000000000080000000000040000000000000000000100000008000000000001000000",
      "type": "0x2",
      "transactionHash": "0x8e321475f8456675bb15f5f180caeb3816a09543dc530af95ddac40f260d2082",
      "transactionIndex": "0x3",
      "blockHash": "0x9e90b88f94fc5ace650ded2ff83a1238035c4c77245675cb2bb90afa05a62d3a",
      "blockNumber": "0x9a78d2f",
      "gasUsed": "0x32883",
      "effectiveGasPrice": "0xbebb028d",
      "from": "0x0000071763daa95626125986d95f7c7748a1bfe3",
      "to": "0xb45243027fdc5c52862b3f9d81b296420491b4ce",
      "contractAddress": null
    },
    {
      "status": "0x1",
      "cumulativeGasUsed": "0x0",
      "logs": [],
      "logsBloom": "0x00000000000000000000000000000000000000000000000000000000000000000000000000000000000000000000000000000000000000000000000000000000000000000000000000000000000000000000000000000000000000000000000000000000000000000000000000000000000000000000000000000000000000000000000000000000000000000000000000000000000000000000000000000000000000000000000000000000000000000000000000000000000000000000000000000000000000000000000000000000000000000000000000000000000000000000000000000000000000000000000000000000000000000000000000000000",
      "type": "0x2",
      "transactionHash": "0x07f03ae40f1ccb94a9a90a3e2db46e3c83ed88414f873eb5af38d314113e6126",
      "transactionIndex": "0xa",
      "blockHash": "0x13a15ed238b86d625acfe947a54683920dc030f90dee4eac11aed4cb61a56f26",
      "blockNumber": "0x9a78d30",
      "gasUsed": "0xcafe",
      "effectiveGasPrice": "0xbebb028d",
      "from": "0x0000071763daa95626125986d95f7c7748a1bfe3",
      "to": "0x6d5fe504b236738d160b56a493f8c369fd5eb433",
      "contractAddress": null
    }
  ],
  "libraries": [],
  "pending": [],
  "returns": {},
  "timestamp": 1754830681,
  "chain": 1329,
  "commit": "d8ec988"
}