{
  "transactions": [
    {
      "hash": "0xeadff90f00f0841ea8b72940bfb3cbfba3acf535ca2cdc6a346cb682e3b4ef51",
      "transactionType": "CALL",
      "contractName": null,
      "contractAddress": "0x9ff8a56c9e393d0cc4093b15b70ecc67cfc577c6",
      "function": "migrateToNewVault(address)",
      "arguments": [
        "0x9833F68daB132E432ac8Bca160f60b77af36A306"
      ],
      "transaction": {
        "from": "0x0000071763daa95626125986d95f7c7748a1bfe3",
        "to": "0x9ff8a56c9e393d0cc4093b15b70ecc67cfc577c6",
        "gas": "0x651a3",
        "value": "0x0",
        "input": "0xcec1e6ba0000000000000000000000009833f68dab132e432ac8bca160f60b77af36a306",
        "nonce": "0x30",
        "chainId": "0x531"
      },
      "additionalContracts": [],
      "isFixedGasLimit": false
    },
    {
      "hash": "0x113968156656690d4edeff3f1200121c1f7344b22f87def74514cbdfc8ed18bf",
      "transactionType": "CALL",
      "contractName": null,
      "contractAddress": "0x9833f68dab132e432ac8bca160f60b77af36a306",
      "function": "receiveFromOldVault(uint256)",
      "arguments": [
        "2444"
      ],
      "transaction": {
        "from": "0x0000071763daa95626125986d95f7c7748a1bfe3",
        "to": "0x9833f68dab132e432ac8bca160f60b77af36a306",
        "gas": "0x11860",
        "value": "0x0",
        "input": "0xf130ce9e000000000000000000000000000000000000000000000000000000000000098c",
        "nonce": "0x31",
        "chainId": "0x531"
      },
      "additionalContracts": [],
      "isFixedGasLimit": false
    }
  ],
  "receipts": [
    {
      "status": "0x1",
      "cumulativeGasUsed": "0x0",
      "logs": [
        {
          "address": "0x02330bd932d89c43d5834c8920314d4d74cd2184",
          "topics": [
            "0x0c875c8d391179c5cf7ad8303d268efd50b8beb78b671f85cd54bfb91eb8ef40",
            "0x000000000000000000000000000000000000000000000000000000000000098c"
          ],
          "data": "0x00000000000000000000000000000000000000000000001142bb6b73985ba14a",
          "blockHash": "0xfca6a92940129b79bd981f7f96a8ede7643f5b8f2ccfe0e9e6f78d33ea3e9e78",
          "blockNumber": "0x9ae7fc9",
          "transactionHash": "0xeadff90f00f0841ea8b72940bfb3cbfba3acf535ca2cdc6a346cb682e3b4ef51",
          "transactionIndex": "0x15",
          "logIndex": "0x17",
          "removed": false
        },
        {
          "address": "0xa5bf73f4eac1045a765b742f6040abd53f3f9aec",
          "topics": [
            "0x0c875c8d391179c5cf7ad8303d268efd50b8beb78b671f85cd54bfb91eb8ef40",
            "0x000000000000000000000000000000000000000000000000000000000000098c"
          ],
          "data": "0x00000000000000000000000000000000000000000000001142bb6b73985ba14a",
          "blockHash": "0xfca6a92940129b79bd981f7f96a8ede7643f5b8f2ccfe0e9e6f78d33ea3e9e78",
          "blockNumber": "0x9ae7fc9",
          "transactionHash": "0xeadff90f00f0841ea8b72940bfb3cbfba3acf535ca2cdc6a346cb682e3b4ef51",
          "transactionIndex": "0x15",
          "logIndex": "0x18",
          "removed": false
        },
        {
          "address": "0x36068f15f257896e03fb7edba3d18898d0ade809",
          "topics": [
            "0xa9f3ca5f8a9e1580edb2741e0ba560084ec72e0067ba3423f9e9327a176882db"
          ],
          "data": "0x000000000000000000000000000000000000000000000000000000000000098c00000000000000000000000000000000000000000000001142bb6b73985ba14a",
          "blockHash": "0xfca6a92940129b79bd981f7f96a8ede7643f5b8f2ccfe0e9e6f78d33ea3e9e78",
          "blockNumber": "0x9ae7fc9",
          "transactionHash": "0xeadff90f00f0841ea8b72940bfb3cbfba3acf535ca2cdc6a346cb682e3b4ef51",
          "transactionIndex": "0x15",
          "logIndex": "0x19",
          "removed": false
        },
        {
          "address": "0x9ff8a56c9e393d0cc4093b15b70ecc67cfc577c6",
          "topics": [
            "0x8be98ba0c457a4e5c820d7f0dc4371bcb8a3c23823129ba922f3482465159df3",
            "0x000000000000000000000000000000000000000000000000000000000000098c"
          ],
          "data": "0x",
          "blockHash": "0xfca6a92940129b79bd981f7f96a8ede7643f5b8f2ccfe0e9e6f78d33ea3e9e78",
          "blockNumber": "0x9ae7fc9",
          "transactionHash": "0xeadff90f00f0841ea8b72940bfb3cbfba3acf535ca2cdc6a346cb682e3b4ef51",
          "transactionIndex": "0x15",
          "logIndex": "0x1a",
          "removed": false
        },
        {
          "address": "0x86a247ef0fc244565bcab93936e867407ac81580",
          "topics": [
            "0xddf252ad1be2c89b69c2b068fc378daa952ba7f163c4a11628f55a4df523b3ef",
            "0x0000000000000000000000009ff8a56c9e393d0cc4093b15b70ecc67cfc577c6",
            "0x0000000000000000000000009833f68dab132e432ac8bca160f60b77af36a306",
            "0x000000000000000000000000000000000000000000000000000000000000098c"
          ],
          "data": "0x",
          "blockHash": "0xfca6a92940129b79bd981f7f96a8ede7643f5b8f2ccfe0e9e6f78d33ea3e9e78",
          "blockNumber": "0x9ae7fc9",
          "transactionHash": "0xeadff90f00f0841ea8b72940bfb3cbfba3acf535ca2cdc6a346cb682e3b4ef51",
          "transactionIndex": "0x15",
          "logIndex": "0x1b",
          "removed": false
        },
        {
          "address": "0x9ff8a56c9e393d0cc4093b15b70ecc67cfc577c6",
          "topics": [
            "0x92e4cea44e9707d0d3f0d5e38d2b0e983dced34d072c945a2fa65182bf693d50",
            "0x0000000000000000000000009833f68dab132e432ac8bca160f60b77af36a306"
          ],
          "data": "0x00000000000000000000000000000000000000000000000000000000000000200000000000000000000000000000000000000000000000000000000000000001000000000000000000000000000000000000000000000000000000000000098c",
          "blockHash": "0xfca6a92940129b79bd981f7f96a8ede7643f5b8f2ccfe0e9e6f78d33ea3e9e78",
          "blockNumber": "0x9ae7fc9",
          "transactionHash": "0xeadff90f00f0841ea8b72940bfb3cbfba3acf535ca2cdc6a346cb682e3b4ef51",
          "transactionIndex": "0x15",
          "logIndex": "0x1c",
          "removed": false
        }
      ],
      "logsBloom": "0x00000000000000000000200400000000000008000000000000220000000002000000001000000000000020000000000000000000000004000000000000000000000000000000000000000108000000000004000000000000000000000000000000040000040000000000000000000000000000000000000000000010000100000000400002000000100000000000000000000020000020000000000001000000000000000000000000000000000000001000000080000000000000000000800800008002000000000000000000100840000000001000000000000000000000020000080000000000000000000000000000000000100008000000000000000000",
      "type": "0x2",
      "transactionHash": "0xeadff90f00f0841ea8b72940bfb3cbfba3acf535ca2cdc6a346cb682e3b4ef51",
      "transactionIndex": "0x15",
      "blockHash": "0xfca6a92940129b79bd981f7f96a8ede7643f5b8f2ccfe0e9e6f78d33ea3e9e78",
      "blockNumber": "0x9ae7fc9",
      "gasUsed": "0x49324",
      "effectiveGasPrice": "0x7d379487",
      "from": "0x0000071763daa95626125986d95f7c7748a1bfe3",
      "to": "0x9ff8a56c9e393d0cc4093b15b70ecc67cfc577c6",
      "contractAddress": null
    },
    {
      "status": "0x1",
      "cumulativeGasUsed": "0x0",
      "logs": [],
      "logsBloom": "0x00000000000000000000000000000000000000000000000000000000000000000000000000000000000000000000000000000000000000000000000000000000000000000000000000000000000000000000000000000000000000000000000000000000000000000000000000000000000000000000000000000000000000000000000000000000000000000000000000000000000000000000000000000000000000000000000000000000000000000000000000000000000000000000000000000000000000000000000000000000000000000000000000000000000000000000000000000000000000000000000000000000000000000000000000000000",
      "type": "0x2",
      "transactionHash": "0x113968156656690d4edeff3f1200121c1f7344b22f87def74514cbdfc8ed18bf",
      "transactionIndex": "0xd",
      "blockHash": "0xb4a7e914cdad15418f7eefd0a1247b4431be24fbd62af23868e99a1900c6a054",
      "blockNumber": "0x9ae7fca",
      "gasUsed": "0xcafe",
      "effectiveGasPrice": "0x7d379487",
      "from": "0x0000071763daa95626125986d95f7c7748a1bfe3",
      "to": "0x9833f68dab132e432ac8bca160f60b77af36a306",
      "contractAddress": null
    }
  ],
  "libraries": [],
  "pending": [],
  "returns": {},
  "timestamp": 1755059136,
  "chain": 1329,
  "commit": "d14fc81"
}